{
  "contractName": "DocumentVault",
  "abi": [
    {
      "anonymous": false,
      "inputs": [
        {
          "indexed": false,
          "internalType": "uint256",
          "name": "recordId",
          "type": "uint256"
        },
        {
          "indexed": false,
          "internalType": "string",
          "name": "action",
          "type": "string"
        },
        {
          "indexed": false,
          "internalType": "address",
          "name": "user",
          "type": "address"
        },
        {
          "indexed": false,
          "internalType": "uint256",
          "name": "timestamp",
          "type": "uint256"
        }
      ],
      "name": "ActivityLogged",
      "type": "event"
    },
    {
      "anonymous": false,
      "inputs": [
        {
          "indexed": false,
          "internalType": "uint256",
          "name": "id",
          "type": "uint256"
        },
        {
          "indexed": false,
          "internalType": "string",
          "name": "ipfsHash",
          "type": "string"
        },
        {
          "indexed": false,
          "internalType": "string",
          "name": "title",
          "type": "string"
        },
        {
          "indexed": false,
          "internalType": "address",
          "name": "owner",
          "type": "address"
        }
      ],
      "name": "RecordCreated",
      "type": "event"
    },
    {
      "anonymous": false,
      "inputs": [
        {
          "indexed": false,
          "internalType": "uint256",
          "name": "id",
          "type": "uint256"
        },
        {
          "indexed": false,
          "internalType": "string",
          "name": "ipfsHash",
          "type": "string"
        },
        {
          "indexed": false,
          "internalType": "string",
          "name": "title",
          "type": "string"
        },
        {
          "indexed": false,
          "internalType": "address",
          "name": "owner",
          "type": "address"
        }
      ],
      "name": "RecordUpdated",
      "type": "event"
    },
    {
      "inputs": [
        {
          "internalType": "string",
          "name": "ipfsHash",
          "type": "string"
        },
        {
          "internalType": "string",
          "name": "title",
          "type": "string"
        }
      ],
      "name": "createRecord",
      "outputs": [],
      "stateMutability": "nonpayable",
      "type": "function"
    },
    {
      "inputs": [
        {
          "internalType": "uint256",
          "name": "recordId",
          "type": "uint256"
        },
        {
          "internalType": "string",
          "name": "ipfsHash",
          "type": "string"
        },
        {
          "internalType": "string",
          "name": "title",
          "type": "string"
        }
      ],
      "name": "updateRecord",
      "outputs": [],
      "stateMutability": "nonpayable",
      "type": "function"
    },
    {
      "inputs": [
        {
          "internalType": "uint256",
          "name": "recordId",
          "type": "uint256"
        },
        {
          "internalType": "string",
          "name": "action",
          "type": "string"
        }
      ],
      "name": "logActivity",
      "outputs": [],
      "stateMutability": "nonpayable",
      "type": "function"
    },
    {
      "inputs": [
        {
          "internalType": "uint256",
          "name": "recordId",
          "type": "uint256"
        }
      ],
      "name": "getRecord",
      "outputs": [
        {
          "internalType": "uint256",
          "name": "",
          "type": "uint256"
        },
        {
          "internalType": "string",
          "name": "",
          "type": "string"
        },
        {
          "internalType": "string",
          "name": "",
          "type": "string"
        },
        {
          "internalType": "address",
          "name": "",
          "type": "address"
        }
      ],
      "stateMutability": "view",
      "type": "function",
      "constant": true
    },
    {
      "inputs": [],
      "name": "getAllRecords",
      "outputs": [
        {
          "components": [
            {
              "internalType": "uint256",
              "name": "id",
              "type": "uint256"
            },
            {
              "internalType": "string",
              "name": "ipfsHash",
              "type": "string"
            },
            {
              "internalType": "string",
              "name": "title",
              "type": "string"
            },
            {
              "internalType": "address",
              "name": "owner",
              "type": "address"
            }
          ],
          "internalType": "struct DocumentVault.Record[]",
          "name": "",
          "type": "tuple[]"
        }
      ],
      "stateMutability": "view",
      "type": "function",
      "constant": true
    },
    {
      "inputs": [
        {
          "internalType": "uint256",
          "name": "recordId",
          "type": "uint256"
        }
      ],
      "name": "getActivities",
      "outputs": [
        {
          "components": [
            {
              "internalType": "uint256",
              "name": "recordId",
              "type": "uint256"
            },
            {
              "internalType": "string",
              "name": "action",
              "type": "string"
            },
            {
              "internalType": "address",
              "name": "user",
              "type": "address"
            },
            {
              "internalType": "uint256",
              "name": "timestamp",
              "type": "uint256"
            }
          ],
          "internalType": "struct DocumentVault.Activity[]",
          "name": "",
          "type": "tuple[]"
        }
      ],
      "stateMutability": "view",
      "type": "function",
      "constant": true
    }
  ],
  "bytecode": "0x6080604052600160045534801561001557600080fd5b5061182f806100256000396000f3fe608060405234801561001057600080fd5b50600436106100625760003560e01c806303e9e609146100675780633812c6a81461009a5780637f77095b146100b6578063a7f9fe72146100d2578063c090b4df146100f0578063fca97fdb1461010c575b600080fd5b610081600480360381019061007c9190610fc5565b61013c565b60405161009194939291906114c4565b60405180910390f35b6100b460048036038101906100af9190611042565b610354565b005b6100d060048036038101906100cb9190610fee565b610568565b005b6100da6107bb565b6040516100e79190611416565b60405180910390f35b61010a60048036038101906101059190610f59565b61099e565b005b61012660048036038101906101219190610fc5565b610b17565b60405161013391906113f4565b60405180910390f35b60006060806000806000600260008881526020019081526020016000205481548110610191577f4e487b7100000000000000000000000000000000000000000000000000000000600052603260045260246000fd5b9060005260206000209060040201604051806080016040529081600082015481526020016001820180546101c4906116c9565b80601f01602080910402602001604051908101604052809291908181526020018280546101f0906116c9565b801561023d5780601f106102125761010080835404028352916020019161023d565b820191906000526020600020905b81548152906001019060200180831161022057829003601f168201915b50505050508152602001600282018054610256906116c9565b80601f0160208091040260200160405190810160405280929190818152602001828054610282906116c9565b80156102cf5780601f106102a4576101008083540402835291602001916102cf565b820191906000526020600020905b8154815290600101906020018083116102b257829003601f168201915b505050505081526020016003820160009054906101000a900473ffffffffffffffffffffffffffffffffffffffff1673ffffffffffffffffffffffffffffffffffffffff1673ffffffffffffffffffffffffffffffffffffffff1681525050905080600001518160200151826040015183606001519450945094509450509193509193565b3373ffffffffffffffffffffffffffffffffffffffff1660006002600086815260200190815260200160002054815481106103b8577f4e487b7100000000000000000000000000000000000000000000000000000000600052603260045260246000fd5b906000526020600020906004020160030160009054906101000a900473ffffffffffffffffffffffffffffffffffffffff1673ffffffffffffffffffffffffffffffffffffffff1614610440576040517f08c379a000000000000000000000000000000000000000000000000000000000815260040161043790611458565b60405180910390fd5b81600060026000868152602001908152602001600020548154811061048e577f4e487b7100000000000000000000000000000000000000000000000000000000600052603260045260246000fd5b906000526020600020906004020160010190805190602001906104b2929190610dfb565b50806000600260008681526020019081526020016000205481548110610501577f4e487b7100000000000000000000000000000000000000000000000000000000600052603260045260246000fd5b90600052602060002090600402016002019080519060200190610525929190610dfb565b507fd8ffe0afb9f36890ae7921bcf8011f5cb28986a631f29a27d134e285b3aee5498383833360405161055b94939291906114c4565b60405180910390a1505050565b3373ffffffffffffffffffffffffffffffffffffffff1660006002600085815260200190815260200160002054815481106105cc577f4e487b7100000000000000000000000000000000000000000000000000000000600052603260045260246000fd5b906000526020600020906004020160030160009054906101000a900473ffffffffffffffffffffffffffffffffffffffff1673ffffffffffffffffffffffffffffffffffffffff1614610654576040517f08c379a000000000000000000000000000000000000000000000000000000000815260040161064b90611438565b60405180910390fd5b600160405180608001604052808481526020018381526020013373ffffffffffffffffffffffffffffffffffffffff1681526020014281525090806001815401808255809150506001900390600052602060002090600402016000909190919091506000820151816000015560208201518160010190805190602001906106dc929190610dfb565b5060408201518160020160006101000a81548173ffffffffffffffffffffffffffffffffffffffff021916908373ffffffffffffffffffffffffffffffffffffffff16021790555060608201518160030155505060036000838152602001908152602001600020600180805490506107549190611617565b90806001815401808255809150506001900390600052602060002001600090919091909150557f03d7b3bee7b750a2246ea0838ad011e7598733a7d354ba39498853f3dd1b3442828233426040516107af9493929190611478565b60405180910390a15050565b60606000805480602002602001604051908101604052809291908181526020016000905b8282101561099557838290600052602060002090600402016040518060800160405290816000820154815260200160018201805461081c906116c9565b80601f0160208091040260200160405190810160405280929190818152602001828054610848906116c9565b80156108955780601f1061086a57610100808354040283529160200191610895565b820191906000526020600020905b81548152906001019060200180831161087857829003601f168201915b505050505081526020016002820180546108ae906116c9565b80601f01602080910402602001604051908101604052809291908181526020018280546108da906116c9565b80156109275780601f106108fc57610100808354040283529160200191610927565b820191906000526020600020905b81548152906001019060200180831161090a57829003601f168201915b505050505081526020016003820160009054906101000a900473ffffffffffffffffffffffffffffffffffffffff1673ffffffffffffffffffffffffffffffffffffffff1673ffffffffffffffffffffffffffffffffffffffff1681525050815260200190600101906107df565b50505050905090565b60006004549050600060405180608001604052808381526020018581526020018481526020013373ffffffffffffffffffffffffffffffffffffffff168152509080600181540180825580915050600190039060005260206000209060040201600090919091909150600082015181600001556020820151816001019080519060200190610a2d929190610dfb565b506040820151816002019080519060200190610a4a929190610dfb565b5060608201518160030160006101000a81548173ffffffffffffffffffffffffffffffffffffffff021916908373ffffffffffffffffffffffffffffffffffffffff16021790555050506001600080549050610aa69190611617565b600260008381526020019081526020016000208190555060046000815480929190610ad0906116fb565b91905055507f5516ba31be0cd157fb67a13dd3abcd94b19579a6caf18b78b1655bd1398d19bf81848433604051610b0a94939291906114c4565b60405180910390a1505050565b6060600060036000848152602001908152602001600020805480602002602001604051908101604052809291908181526020018280548015610b7857602002820191906000526020600020905b815481526020019060010190808311610b64575b505050505090506000815167ffffffffffffffff811115610bc2577f4e487b7100000000000000000000000000000000000000000000000000000000600052604160045260246000fd5b604051908082528060200260200182016040528015610bfb57816020015b610be8610e81565b815260200190600190039081610be05790505b50905060005b8251811015610df0576001838281518110610c45577f4e487b7100000000000000000000000000000000000000000000000000000000600052603260045260246000fd5b602002602001015181548110610c84577f4e487b7100000000000000000000000000000000000000000000000000000000600052603260045260246000fd5b906000526020600020906004020160405180608001604052908160008201548152602001600182018054610cb7906116c9565b80601f0160208091040260200160405190810160405280929190818152602001828054610ce3906116c9565b8015610d305780601f10610d0557610100808354040283529160200191610d30565b820191906000526020600020905b815481529060010190602001808311610d1357829003601f168201915b505050505081526020016002820160009054906101000a900473ffffffffffffffffffffffffffffffffffffffff1673ffffffffffffffffffffffffffffffffffffffff1673ffffffffffffffffffffffffffffffffffffffff168152602001600382015481525050828281518110610dd2577f4e487b7100000000000000000000000000000000000000000000000000000000600052603260045260246000fd5b60200260200101819052508080610de8906116fb565b915050610c01565b508092505050919050565b828054610e07906116c9565b90600052602060002090601f016020900481019282610e295760008555610e70565b82601f10610e4257805160ff1916838001178555610e70565b82800160010185558215610e70579182015b82811115610e6f578251825591602001919060010190610e54565b5b509050610e7d9190610ebf565b5090565b60405180608001604052806000815260200160608152602001600073ffffffffffffffffffffffffffffffffffffffff168152602001600081525090565b5b80821115610ed8576000816000905550600101610ec0565b5090565b6000610eef610eea84611548565b611517565b905082815260208101848484011115610f0757600080fd5b610f12848285611687565b509392505050565b600082601f830112610f2b57600080fd5b8135610f3b848260208601610edc565b91505092915050565b600081359050610f53816117e2565b92915050565b60008060408385031215610f6c57600080fd5b600083013567ffffffffffffffff811115610f8657600080fd5b610f9285828601610f1a565b925050602083013567ffffffffffffffff811115610faf57600080fd5b610fbb85828601610f1a565b9150509250929050565b600060208284031215610fd757600080fd5b6000610fe584828501610f44565b91505092915050565b6000806040838503121561100157600080fd5b600061100f85828601610f44565b925050602083013567ffffffffffffffff81111561102c57600080fd5b61103885828601610f1a565b9150509250929050565b60008060006060848603121561105757600080fd5b600061106586828701610f44565b935050602084013567ffffffffffffffff81111561108257600080fd5b61108e86828701610f1a565b925050604084013567ffffffffffffffff8111156110ab57600080fd5b6110b786828701610f1a565b9150509250925092565b60006110cd8383611309565b905092915050565b60006110e1838361136c565b905092915050565b6110f28161164b565b82525050565b6111018161164b565b82525050565b600061111282611598565b61111c81856115d3565b93508360208202850161112e85611578565b8060005b8581101561116a578484038952815161114b85826110c1565b9450611156836115b9565b925060208a01995050600181019050611132565b50829750879550505050505092915050565b6000611187826115a3565b61119181856115e4565b9350836020820285016111a385611588565b8060005b858110156111df57848403895281516111c085826110d5565b94506111cb836115c6565b925060208a019950506001810190506111a7565b50829750879550505050505092915050565b60006111fc826115ae565b61120681856115f5565b9350611216818560208601611696565b61121f816117d1565b840191505092915050565b6000611235826115ae565b61123f8185611606565b935061124f818560208601611696565b611258816117d1565b840191505092915050565b6000611270601f83611606565b91507f4f6e6c7920746865206f776e65722063616e206c6f67206163746976697479006000830152602082019050919050565b60006112b0602483611606565b91507f4f6e6c7920746865206f776e65722063616e207570646174652074686520726560008301527f636f7264000000000000000000000000000000000000000000000000000000006020830152604082019050919050565b600060808301600083015161132160008601826113d6565b506020830151848203602086015261133982826111f1565b915050604083015161134e60408601826110e9565b50606083015161136160608601826113d6565b508091505092915050565b600060808301600083015161138460008601826113d6565b506020830151848203602086015261139c82826111f1565b915050604083015184820360408601526113b682826111f1565b91505060608301516113cb60608601826110e9565b508091505092915050565b6113df8161167d565b82525050565b6113ee8161167d565b82525050565b6000602082019050818103600083015261140e8184611107565b905092915050565b60006020820190508181036000830152611430818461117c565b905092915050565b6000602082019050818103600083015261145181611263565b9050919050565b60006020820190508181036000830152611471816112a3565b9050919050565b600060808201905061148d60008301876113e5565b818103602083015261149f818661122a565b90506114ae60408301856110f8565b6114bb60608301846113e5565b95945050505050565b60006080820190506114d960008301876113e5565b81810360208301526114eb818661122a565b905081810360408301526114ff818561122a565b905061150e60608301846110f8565b95945050505050565b6000604051905081810181811067ffffffffffffffff8211171561153e5761153d6117a2565b5b8060405250919050565b600067ffffffffffffffff821115611563576115626117a2565b5b601f19601f8301169050602081019050919050565b6000819050602082019050919050565b6000819050602082019050919050565b600081519050919050565b600081519050919050565b600081519050919050565b6000602082019050919050565b6000602082019050919050565b600082825260208201905092915050565b600082825260208201905092915050565b600082825260208201905092915050565b600082825260208201905092915050565b60006116228261167d565b915061162d8361167d565b9250828210156116405761163f611744565b5b828203905092915050565b60006116568261165d565b9050919050565b600073ffffffffffffffffffffffffffffffffffffffff82169050919050565b6000819050919050565b82818337600083830152505050565b60005b838110156116b4578082015181840152602081019050611699565b838111156116c3576000848401525b50505050565b600060028204905060018216806116e157607f821691505b602082108114156116f5576116f4611773565b5b50919050565b60006117068261167d565b91507fffffffffffffffffffffffffffffffffffffffffffffffffffffffffffffffff82141561173957611738611744565b5b600182019050919050565b7f4e487b7100000000000000000000000000000000000000000000000000000000600052601160045260246000fd5b7f4e487b7100000000000000000000000000000000000000000000000000000000600052602260045260246000fd5b7f4e487b7100000000000000000000000000000000000000000000000000000000600052604160045260246000fd5b6000601f19601f8301169050919050565b6117eb8161167d565b81146117f657600080fd5b5056fea26469706673582212201ec096435243ab122b57b3d5274c5eb6bd6002904cb5d8b3f498c14f98c3432264736f6c63430008000033",
  "immutableReferences": {},
  "source": "// SPDX-License-Identifier: MIT\npragma solidity ^0.8.0;\n\ncontract DocumentVault {\n    struct Record {\n        uint id;\n        string ipfsHash;\n        string title;\n        address owner;\n    }\n\n    struct Activity {\n        uint recordId;\n        string action;\n        address user;\n        uint timestamp;\n    }\n\n    Record[] private records;\n    Activity[] private activities;\n    mapping(uint => uint) private recordIdToIndex;\n    mapping(uint => uint[]) private recordIdToActivityIds;\n    uint private nextRecordId = 1;\n\n    event RecordCreated(uint id, string ipfsHash, string title, address owner);\n    event RecordUpdated(uint id, string ipfsHash, string title, address owner);\n    event ActivityLogged(uint recordId, string action, address user, uint timestamp);\n\n    function createRecord(string memory ipfsHash, string memory title) public {\n        uint recordId = nextRecordId;\n        records.push(Record(recordId, ipfsHash, title, msg.sender));\n        recordIdToIndex[recordId] = records.length - 1;\n        nextRecordId++;\n        \n        emit RecordCreated(recordId, ipfsHash, title, msg.sender);\n    }\n\n    function updateRecord(uint recordId, string memory ipfsHash, string memory title) public {\n        require(records[recordIdToIndex[recordId]].owner == msg.sender, \"Only the owner can update the record\");\n\n        records[recordIdToIndex[recordId]].ipfsHash = ipfsHash;\n        records[recordIdToIndex[recordId]].title = title;\n\n        emit RecordUpdated(recordId, ipfsHash, title, msg.sender);\n    }\n\n    function logActivity(uint recordId, string memory action) public {\n        require(records[recordIdToIndex[recordId]].owner == msg.sender, \"Only the owner can log activity\");\n\n        activities.push(Activity(recordId, action, msg.sender, block.timestamp));\n        recordIdToActivityIds[recordId].push(activities.length - 1);\n\n        emit ActivityLogged(recordId, action, msg.sender, block.timestamp);\n    }\n\n    function getRecord(uint recordId) public view returns (uint, string memory, string memory, address) {\n        Record memory record = records[recordIdToIndex[recordId]];\n        return (record.id, record.ipfsHash, record.title, record.owner);\n    }\n\n    function getAllRecords() public view returns (Record[] memory) {\n        return records;\n    }\n\n    function getActivities(uint recordId) public view returns (Activity[] memory) {\n        uint[] memory activityIds = recordIdToActivityIds[recordId];\n        Activity[] memory result = new Activity[](activityIds.length);\n\n        for (uint i = 0; i < activityIds.length; i++) {\n            result[i] = activities[activityIds[i]];\n        }\n\n        return result;\n    }\n}\n",
  "sourcePath": "/Users/sgr/Development/sg_hack/Contracts/contracts/DocumentVault.sol",
  "compiler": {
    "name": "solc",
    "version": "0.8.0+commit.c7dfd78e.Emscripten.clang"
  },
  "schemaVersion": "3.4.16",
  "updatedAt": "2024-07-13T11:23:40.260Z",
  "networkType": "ethereum",
  "devdoc": {
    "kind": "dev",
    "methods": {},
    "version": 1
  },
  "userdoc": {
    "kind": "user",
    "methods": {},
    "version": 1
  }
}