{
  "contractName": "DocumentVault",
  "abi": [
    {
      "anonymous": false,
      "inputs": [
        {
          "indexed": false,
          "internalType": "uint256",
          "name": "recordId",
          "type": "uint256"
        },
        {
          "indexed": false,
          "internalType": "string",
          "name": "action",
          "type": "string"
        },
        {
          "indexed": false,
          "internalType": "address",
          "name": "user",
          "type": "address"
        },
        {
          "indexed": false,
          "internalType": "uint256",
          "name": "timestamp",
          "type": "uint256"
        }
      ],
      "name": "ActivityLogged",
      "type": "event"
    },
    {
      "anonymous": false,
      "inputs": [
        {
          "indexed": false,
          "internalType": "uint256",
          "name": "id",
          "type": "uint256"
        },
        {
          "indexed": false,
          "internalType": "string",
          "name": "ipfsHash",
          "type": "string"
        },
        {
          "indexed": false,
          "internalType": "string",
          "name": "title",
          "type": "string"
        },
        {
          "indexed": false,
          "internalType": "address",
          "name": "owner",
          "type": "address"
        }
      ],
      "name": "RecordCreated",
      "type": "event"
    },
    {
      "anonymous": false,
      "inputs": [
        {
          "indexed": false,
          "internalType": "uint256",
          "name": "id",
          "type": "uint256"
        },
        {
          "indexed": false,
          "internalType": "string",
          "name": "ipfsHash",
          "type": "string"
        },
        {
          "indexed": false,
          "internalType": "string",
          "name": "title",
          "type": "string"
        },
        {
          "indexed": false,
          "internalType": "address",
          "name": "owner",
          "type": "address"
        }
      ],
      "name": "RecordUpdated",
      "type": "event"
    },
    {
      "inputs": [
        {
          "internalType": "uint256",
          "name": "",
          "type": "uint256"
        },
        {
          "internalType": "uint256",
          "name": "",
          "type": "uint256"
        }
      ],
      "name": "activities",
      "outputs": [
        {
          "internalType": "uint256",
          "name": "recordId",
          "type": "uint256"
        },
        {
          "internalType": "string",
          "name": "action",
          "type": "string"
        },
        {
          "internalType": "address",
          "name": "user",
          "type": "address"
        },
        {
          "internalType": "uint256",
          "name": "timestamp",
          "type": "uint256"
        }
      ],
      "stateMutability": "view",
      "type": "function",
      "constant": true
    },
    {
      "inputs": [],
      "name": "recordCount",
      "outputs": [
        {
          "internalType": "uint256",
          "name": "",
          "type": "uint256"
        }
      ],
      "stateMutability": "view",
      "type": "function",
      "constant": true
    },
    {
      "inputs": [
        {
          "internalType": "uint256",
          "name": "",
          "type": "uint256"
        }
      ],
      "name": "records",
      "outputs": [
        {
          "internalType": "uint256",
          "name": "id",
          "type": "uint256"
        },
        {
          "internalType": "string",
          "name": "ipfsHash",
          "type": "string"
        },
        {
          "internalType": "string",
          "name": "title",
          "type": "string"
        },
        {
          "internalType": "address",
          "name": "owner",
          "type": "address"
        }
      ],
      "stateMutability": "view",
      "type": "function",
      "constant": true
    },
    {
      "inputs": [
        {
          "internalType": "string",
          "name": "_ipfsHash",
          "type": "string"
        },
        {
          "internalType": "string",
          "name": "_title",
          "type": "string"
        }
      ],
      "name": "createRecord",
      "outputs": [],
      "stateMutability": "nonpayable",
      "type": "function"
    },
    {
      "inputs": [
        {
          "internalType": "uint256",
          "name": "_id",
          "type": "uint256"
        },
        {
          "internalType": "string",
          "name": "_ipfsHash",
          "type": "string"
        },
        {
          "internalType": "string",
          "name": "_title",
          "type": "string"
        }
      ],
      "name": "updateRecord",
      "outputs": [],
      "stateMutability": "nonpayable",
      "type": "function"
    },
    {
      "inputs": [
        {
          "internalType": "uint256",
          "name": "_recordId",
          "type": "uint256"
        },
        {
          "internalType": "string",
          "name": "_action",
          "type": "string"
        }
      ],
      "name": "logActivity",
      "outputs": [],
      "stateMutability": "nonpayable",
      "type": "function"
    },
    {
      "inputs": [
        {
          "internalType": "uint256",
          "name": "_id",
          "type": "uint256"
        }
      ],
      "name": "getRecord",
      "outputs": [
        {
          "components": [
            {
              "internalType": "uint256",
              "name": "id",
              "type": "uint256"
            },
            {
              "internalType": "string",
              "name": "ipfsHash",
              "type": "string"
            },
            {
              "internalType": "string",
              "name": "title",
              "type": "string"
            },
            {
              "internalType": "address",
              "name": "owner",
              "type": "address"
            }
          ],
          "internalType": "struct DocumentVault.Record",
          "name": "",
          "type": "tuple"
        }
      ],
      "stateMutability": "view",
      "type": "function",
      "constant": true
    },
    {
      "inputs": [],
      "name": "getAllRecords",
      "outputs": [
        {
          "components": [
            {
              "internalType": "uint256",
              "name": "id",
              "type": "uint256"
            },
            {
              "internalType": "string",
              "name": "ipfsHash",
              "type": "string"
            },
            {
              "internalType": "string",
              "name": "title",
              "type": "string"
            },
            {
              "internalType": "address",
              "name": "owner",
              "type": "address"
            }
          ],
          "internalType": "struct DocumentVault.Record[]",
          "name": "",
          "type": "tuple[]"
        }
      ],
      "stateMutability": "view",
      "type": "function",
      "constant": true
    },
    {
      "inputs": [
        {
          "internalType": "uint256",
          "name": "_recordId",
          "type": "uint256"
        }
      ],
      "name": "getActivities",
      "outputs": [
        {
          "components": [
            {
              "internalType": "uint256",
              "name": "recordId",
              "type": "uint256"
            },
            {
              "internalType": "string",
              "name": "action",
              "type": "string"
            },
            {
              "internalType": "address",
              "name": "user",
              "type": "address"
            },
            {
              "internalType": "uint256",
              "name": "timestamp",
              "type": "uint256"
            }
          ],
          "internalType": "struct DocumentVault.Activity[]",
          "name": "",
          "type": "tuple[]"
        }
      ],
      "stateMutability": "view",
      "type": "function",
      "constant": true
    }
  ],
  "bytecode": "0x608060405234801561001057600080fd5b50611a57806100206000396000f3fe608060405234801561001057600080fd5b50600436106100935760003560e01c8063900407bc11610066578063900407bc14610133578063a7f9fe7214610151578063c090b4df1461016f578063fca97fdb1461018b578063fcfc1a76146101bb57610093565b806303e9e6091461009857806334461067146100c85780633812c6a8146100fb5780637f77095b14610117575b600080fd5b6100b260048036038101906100ad9190611190565b6101ee565b6040516100bf9190611663565b60405180910390f35b6100e260048036038101906100dd9190611190565b61039e565b6040516100f294939291906116ec565b60405180910390f35b6101156004803603810190610110919061120d565b6104fe565b005b610131600480360381019061012c91906111b9565b6106f0565b005b61013b610863565b6040516101489190611685565b60405180910390f35b610159610869565b6040516101669190611621565b60405180910390f35b61018960048036038101906101849190611124565b610b07565b005b6101a560048036038101906101a09190611190565b610d63565b6040516101b291906115ff565b60405180910390f35b6101d560048036038101906101d0919061128c565b610ed1565b6040516101e594939291906116a0565b60405180910390f35b6101f6610fc6565b6000808381526020019081526020016000206040518060800160405290816000820154815260200160018201805461022d906118f1565b80601f0160208091040260200160405190810160405280929190818152602001828054610259906118f1565b80156102a65780601f1061027b576101008083540402835291602001916102a6565b820191906000526020600020905b81548152906001019060200180831161028957829003601f168201915b505050505081526020016002820180546102bf906118f1565b80601f01602080910402602001604051908101604052809291908181526020018280546102eb906118f1565b80156103385780601f1061030d57610100808354040283529160200191610338565b820191906000526020600020905b81548152906001019060200180831161031b57829003601f168201915b505050505081526020016003820160009054906101000a900473ffffffffffffffffffffffffffffffffffffffff1673ffffffffffffffffffffffffffffffffffffffff1673ffffffffffffffffffffffffffffffffffffffff16815250509050919050565b60006020528060005260406000206000915090508060000154908060010180546103c7906118f1565b80601f01602080910402602001604051908101604052809291908181526020018280546103f3906118f1565b80156104405780601f1061041557610100808354040283529160200191610440565b820191906000526020600020905b81548152906001019060200180831161042357829003601f168201915b505050505090806002018054610455906118f1565b80601f0160208091040260200160405190810160405280929190818152602001828054610481906118f1565b80156104ce5780601f106104a3576101008083540402835291602001916104ce565b820191906000526020600020905b8154815290600101906020018083116104b157829003601f168201915b5050505050908060030160009054906101000a900473ffffffffffffffffffffffffffffffffffffffff16905084565b600254831115610543576040517f08c379a000000000000000000000000000000000000000000000000000000000815260040161053a90611643565b60405180910390fd5b6000806000858152602001908152602001600020905082816001019080519060200190610571929190611004565b508181600201908051906020019061058a929190611004565b506001600085815260200190815260200160002060405180608001604052808681526020016040518060400160405280600781526020017f557064617465640000000000000000000000000000000000000000000000000081525081526020013373ffffffffffffffffffffffffffffffffffffffff168152602001428152509080600181540180825580915050600190039060005260206000209060040201600090919091909150600082015181600001556020820151816001019080519060200190610659929190611004565b5060408201518160020160006101000a81548173ffffffffffffffffffffffffffffffffffffffff021916908373ffffffffffffffffffffffffffffffffffffffff1602179055506060820151816003015550507fd8ffe0afb9f36890ae7921bcf8011f5cb28986a631f29a27d134e285b3aee549848484336040516106e294939291906116ec565b60405180910390a150505050565b600254821115610735576040517f08c379a000000000000000000000000000000000000000000000000000000000815260040161072c90611643565b60405180910390fd5b6001600083815260200190815260200160002060405180608001604052808481526020018381526020013373ffffffffffffffffffffffffffffffffffffffff1681526020014281525090806001815401808255809150506001900390600052602060002090600402016000909190919091506000820151816000015560208201518160010190805190602001906107ce929190611004565b5060408201518160020160006101000a81548173ffffffffffffffffffffffffffffffffffffffff021916908373ffffffffffffffffffffffffffffffffffffffff1602179055506060820151816003015550507f03d7b3bee7b750a2246ea0838ad011e7598733a7d354ba39498853f3dd1b34428282334260405161085794939291906116a0565b60405180910390a15050565b60025481565b6060600060025467ffffffffffffffff8111156108af577f4e487b7100000000000000000000000000000000000000000000000000000000600052604160045260246000fd5b6040519080825280602002602001820160405280156108e857816020015b6108d5610fc6565b8152602001906001900390816108cd5790505b5090506000600190505b6002548111610aff5760008082815260200190815260200160002060405180608001604052908160008201548152602001600182018054610932906118f1565b80601f016020809104026020016040519081016040528092919081815260200182805461095e906118f1565b80156109ab5780601f10610980576101008083540402835291602001916109ab565b820191906000526020600020905b81548152906001019060200180831161098e57829003601f168201915b505050505081526020016002820180546109c4906118f1565b80601f01602080910402602001604051908101604052809291908181526020018280546109f0906118f1565b8015610a3d5780601f10610a1257610100808354040283529160200191610a3d565b820191906000526020600020905b815481529060010190602001808311610a2057829003601f168201915b505050505081526020016003820160009054906101000a900473ffffffffffffffffffffffffffffffffffffffff1673ffffffffffffffffffffffffffffffffffffffff1673ffffffffffffffffffffffffffffffffffffffff168152505082600183610aaa919061183f565b81518110610ae1577f4e487b7100000000000000000000000000000000000000000000000000000000600052603260045260246000fd5b60200260200101819052508080610af790611923565b9150506108f2565b508091505090565b60026000815480929190610b1a90611923565b9190505550604051806080016040528060025481526020018381526020018281526020013373ffffffffffffffffffffffffffffffffffffffff168152506000806002548152602001908152602001600020600082015181600001556020820151816001019080519060200190610b92929190611004565b506040820151816002019080519060200190610baf929190611004565b5060608201518160030160006101000a81548173ffffffffffffffffffffffffffffffffffffffff021916908373ffffffffffffffffffffffffffffffffffffffff160217905550905050600160006002548152602001908152602001600020604051806080016040528060025481526020016040518060400160405280600781526020017f437265617465640000000000000000000000000000000000000000000000000081525081526020013373ffffffffffffffffffffffffffffffffffffffff168152602001428152509080600181540180825580915050600190039060005260206000209060040201600090919091909150600082015181600001556020820151816001019080519060200190610ccc929190611004565b5060408201518160020160006101000a81548173ffffffffffffffffffffffffffffffffffffffff021916908373ffffffffffffffffffffffffffffffffffffffff1602179055506060820151816003015550507f5516ba31be0cd157fb67a13dd3abcd94b19579a6caf18b78b1655bd1398d19bf600254838333604051610d5794939291906116ec565b60405180910390a15050565b606060016000838152602001908152602001600020805480602002602001604051908101604052809291908181526020016000905b82821015610ec6578382906000526020600020906004020160405180608001604052908160008201548152602001600182018054610dd5906118f1565b80601f0160208091040260200160405190810160405280929190818152602001828054610e01906118f1565b8015610e4e5780601f10610e2357610100808354040283529160200191610e4e565b820191906000526020600020905b815481529060010190602001808311610e3157829003601f168201915b505050505081526020016002820160009054906101000a900473ffffffffffffffffffffffffffffffffffffffff1673ffffffffffffffffffffffffffffffffffffffff1673ffffffffffffffffffffffffffffffffffffffff16815260200160038201548152505081526020019060010190610d98565b505050509050919050565b60016020528160005260406000208181548110610eed57600080fd5b906000526020600020906004020160009150915050806000015490806001018054610f17906118f1565b80601f0160208091040260200160405190810160405280929190818152602001828054610f43906118f1565b8015610f905780601f10610f6557610100808354040283529160200191610f90565b820191906000526020600020905b815481529060010190602001808311610f7357829003601f168201915b5050505050908060020160009054906101000a900473ffffffffffffffffffffffffffffffffffffffff16908060030154905084565b6040518060800160405280600081526020016060815260200160608152602001600073ffffffffffffffffffffffffffffffffffffffff1681525090565b828054611010906118f1565b90600052602060002090601f0160209004810192826110325760008555611079565b82601f1061104b57805160ff1916838001178555611079565b82800160010185558215611079579182015b8281111561107857825182559160200191906001019061105d565b5b509050611086919061108a565b5090565b5b808211156110a357600081600090555060010161108b565b5090565b60006110ba6110b584611770565b61173f565b9050828152602081018484840111156110d257600080fd5b6110dd8482856118af565b509392505050565b600082601f8301126110f657600080fd5b81356111068482602086016110a7565b91505092915050565b60008135905061111e81611a0a565b92915050565b6000806040838503121561113757600080fd5b600083013567ffffffffffffffff81111561115157600080fd5b61115d858286016110e5565b925050602083013567ffffffffffffffff81111561117a57600080fd5b611186858286016110e5565b9150509250929050565b6000602082840312156111a257600080fd5b60006111b08482850161110f565b91505092915050565b600080604083850312156111cc57600080fd5b60006111da8582860161110f565b925050602083013567ffffffffffffffff8111156111f757600080fd5b611203858286016110e5565b9150509250929050565b60008060006060848603121561122257600080fd5b60006112308682870161110f565b935050602084013567ffffffffffffffff81111561124d57600080fd5b611259868287016110e5565b925050604084013567ffffffffffffffff81111561127657600080fd5b611282868287016110e5565b9150509250925092565b6000806040838503121561129f57600080fd5b60006112ad8582860161110f565b92505060206112be8582860161110f565b9150509250929050565b60006112d483836114aa565b905092915050565b60006112e8838361150d565b905092915050565b6112f981611873565b82525050565b61130881611873565b82525050565b6000611319826117c0565b61132381856117fb565b935083602082028501611335856117a0565b8060005b85811015611371578484038952815161135285826112c8565b945061135d836117e1565b925060208a01995050600181019050611339565b50829750879550505050505092915050565b600061138e826117cb565b611398818561180c565b9350836020820285016113aa856117b0565b8060005b858110156113e657848403895281516113c785826112dc565b94506113d2836117ee565b925060208a019950506001810190506113ae565b50829750879550505050505092915050565b6000611403826117d6565b61140d818561181d565b935061141d8185602086016118be565b611426816119f9565b840191505092915050565b600061143c826117d6565b611446818561182e565b93506114568185602086016118be565b61145f816119f9565b840191505092915050565b600061147760168361182e565b91507f5265636f726420646f6573206e6f742065786973742e000000000000000000006000830152602082019050919050565b60006080830160008301516114c260008601826115e1565b50602083015184820360208601526114da82826113f8565b91505060408301516114ef60408601826112f0565b50606083015161150260608601826115e1565b508091505092915050565b600060808301600083015161152560008601826115e1565b506020830151848203602086015261153d82826113f8565b9150506040830151848203604086015261155782826113f8565b915050606083015161156c60608601826112f0565b508091505092915050565b600060808301600083015161158f60008601826115e1565b50602083015184820360208601526115a782826113f8565b915050604083015184820360408601526115c182826113f8565b91505060608301516115d660608601826112f0565b508091505092915050565b6115ea816118a5565b82525050565b6115f9816118a5565b82525050565b60006020820190508181036000830152611619818461130e565b905092915050565b6000602082019050818103600083015261163b8184611383565b905092915050565b6000602082019050818103600083015261165c8161146a565b9050919050565b6000602082019050818103600083015261167d8184611577565b905092915050565b600060208201905061169a60008301846115f0565b92915050565b60006080820190506116b560008301876115f0565b81810360208301526116c78186611431565b90506116d660408301856112ff565b6116e360608301846115f0565b95945050505050565b600060808201905061170160008301876115f0565b81810360208301526117138186611431565b905081810360408301526117278185611431565b905061173660608301846112ff565b95945050505050565b6000604051905081810181811067ffffffffffffffff82111715611766576117656119ca565b5b8060405250919050565b600067ffffffffffffffff82111561178b5761178a6119ca565b5b601f19601f8301169050602081019050919050565b6000819050602082019050919050565b6000819050602082019050919050565b600081519050919050565b600081519050919050565b600081519050919050565b6000602082019050919050565b6000602082019050919050565b600082825260208201905092915050565b600082825260208201905092915050565b600082825260208201905092915050565b600082825260208201905092915050565b600061184a826118a5565b9150611855836118a5565b9250828210156118685761186761196c565b5b828203905092915050565b600061187e82611885565b9050919050565b600073ffffffffffffffffffffffffffffffffffffffff82169050919050565b6000819050919050565b82818337600083830152505050565b60005b838110156118dc5780820151818401526020810190506118c1565b838111156118eb576000848401525b50505050565b6000600282049050600182168061190957607f821691505b6020821081141561191d5761191c61199b565b5b50919050565b600061192e826118a5565b91507fffffffffffffffffffffffffffffffffffffffffffffffffffffffffffffffff8214156119615761196061196c565b5b600182019050919050565b7f4e487b7100000000000000000000000000000000000000000000000000000000600052601160045260246000fd5b7f4e487b7100000000000000000000000000000000000000000000000000000000600052602260045260246000fd5b7f4e487b7100000000000000000000000000000000000000000000000000000000600052604160045260246000fd5b6000601f19601f8301169050919050565b611a13816118a5565b8114611a1e57600080fd5b5056fea2646970667358221220e0be1463430bdff6489f1f90821a31c86c09c820fb79d0a6cab9992b11cef35a64736f6c63430008000033",
  "immutableReferences": {},
  "source": "// SPDX-License-Identifier: MIT\npragma solidity ^0.8.0;\n\ncontract DocumentVault {\n    struct Record {\n        uint id;\n        string ipfsHash;\n        string title;\n        address owner;\n    }\n\n    struct Activity {\n        uint recordId;\n        string action;\n        address user;\n        uint timestamp;\n    }\n\n    mapping(uint => Record) public records;\n    mapping(uint => Activity[]) public activities;\n    uint public recordCount;\n\n    event RecordCreated(\n        uint id,\n        string ipfsHash,\n        string title,\n        address owner\n    );\n\n    event RecordUpdated(\n        uint id,\n        string ipfsHash,\n        string title,\n        address owner\n    );\n\n    event ActivityLogged(\n        uint recordId,\n        string action,\n        address user,\n        uint timestamp\n    );\n\n    function createRecord(string memory _ipfsHash, string memory _title) public {\n        recordCount++;\n        records[recordCount] = Record(recordCount, _ipfsHash, _title, msg.sender);\n        activities[recordCount].push(Activity(recordCount, \"Created\", msg.sender, block.timestamp));\n        emit RecordCreated(recordCount, _ipfsHash, _title, msg.sender);\n    }\n\n    function updateRecord(uint _id, string memory _ipfsHash, string memory _title) public {\n        require(_id <= recordCount, \"Record does not exist.\");\n        Record storage record = records[_id];\n        record.ipfsHash = _ipfsHash;\n        record.title = _title;\n        activities[_id].push(Activity(_id, \"Updated\", msg.sender, block.timestamp));\n        emit RecordUpdated(_id, _ipfsHash, _title, msg.sender);\n    }\n\n    function logActivity(uint _recordId, string memory _action) public {\n        require(_recordId <= recordCount, \"Record does not exist.\");\n        activities[_recordId].push(Activity(_recordId, _action, msg.sender, block.timestamp));\n        emit ActivityLogged(_recordId, _action, msg.sender, block.timestamp);\n    }\n\n    function getRecord(uint _id) public view returns (Record memory) {\n        return records[_id];\n    }\n\n    function getAllRecords() public view returns (Record[] memory) {\n        Record[] memory allRecords = new Record[](recordCount);\n        for (uint i = 1; i <= recordCount; i++) {\n            allRecords[i - 1] = records[i];\n        }\n        return allRecords;\n    }\n\n    function getActivities(uint _recordId) public view returns (Activity[] memory) {\n        return activities[_recordId];\n    }\n}",
  "sourcePath": "/Users/sgr/Development/sg_hack/Contracts/contracts/DocumentVault.sol",
  "compiler": {
    "name": "solc",
    "version": "0.8.0+commit.c7dfd78e.Emscripten.clang"
  },
  "schemaVersion": "3.4.16",
  "updatedAt": "2024-07-13T16:23:50.109Z",
  "networkType": "ethereum",
  "devdoc": {
    "kind": "dev",
    "methods": {},
    "version": 1
  },
  "userdoc": {
    "kind": "user",
    "methods": {},
    "version": 1
  }
}