{
  "contractName": "DocumentVault",
  "abi": [
    {
      "inputs": [],
      "stateMutability": "nonpayable",
      "type": "constructor"
    },
    {
      "anonymous": false,
      "inputs": [
        {
          "indexed": false,
          "internalType": "uint256",
          "name": "recordId",
          "type": "uint256"
        },
        {
          "indexed": false,
          "internalType": "string",
          "name": "ipfsHash",
          "type": "string"
        },
        {
          "indexed": false,
          "internalType": "string",
          "name": "action",
          "type": "string"
        },
        {
          "indexed": false,
          "internalType": "address",
          "name": "user",
          "type": "address"
        },
        {
          "indexed": false,
          "internalType": "uint256",
          "name": "timestamp",
          "type": "uint256"
        }
      ],
      "name": "ActivityLogged",
      "type": "event"
    },
    {
      "anonymous": false,
      "inputs": [
        {
          "indexed": false,
          "internalType": "string",
          "name": "role",
          "type": "string"
        },
        {
          "indexed": false,
          "internalType": "string",
          "name": "action",
          "type": "string"
        },
        {
          "indexed": false,
          "internalType": "bool",
          "name": "result",
          "type": "bool"
        }
      ],
      "name": "PermissionChecked",
      "type": "event"
    },
    {
      "anonymous": false,
      "inputs": [
        {
          "indexed": false,
          "internalType": "uint256",
          "name": "id",
          "type": "uint256"
        },
        {
          "indexed": false,
          "internalType": "string",
          "name": "ipfsHash",
          "type": "string"
        },
        {
          "indexed": false,
          "internalType": "string",
          "name": "title",
          "type": "string"
        },
        {
          "indexed": false,
          "internalType": "address",
          "name": "owner",
          "type": "address"
        }
      ],
      "name": "RecordCreated",
      "type": "event"
    },
    {
      "anonymous": false,
      "inputs": [
        {
          "indexed": false,
          "internalType": "uint256",
          "name": "id",
          "type": "uint256"
        },
        {
          "indexed": false,
          "internalType": "address",
          "name": "owner",
          "type": "address"
        }
      ],
      "name": "RecordDeleted",
      "type": "event"
    },
    {
      "anonymous": false,
      "inputs": [
        {
          "indexed": false,
          "internalType": "uint256",
          "name": "id",
          "type": "uint256"
        },
        {
          "indexed": false,
          "internalType": "string",
          "name": "ipfsHash",
          "type": "string"
        },
        {
          "indexed": false,
          "internalType": "string",
          "name": "title",
          "type": "string"
        },
        {
          "indexed": false,
          "internalType": "address",
          "name": "owner",
          "type": "address"
        }
      ],
      "name": "RecordUpdated",
      "type": "event"
    },
    {
      "inputs": [
        {
          "internalType": "uint256",
          "name": "",
          "type": "uint256"
        },
        {
          "internalType": "uint256",
          "name": "",
          "type": "uint256"
        }
      ],
      "name": "activities",
      "outputs": [
        {
          "internalType": "uint256",
          "name": "recordId",
          "type": "uint256"
        },
        {
          "internalType": "string",
          "name": "ipfsHash",
          "type": "string"
        },
        {
          "internalType": "string",
          "name": "action",
          "type": "string"
        },
        {
          "internalType": "address",
          "name": "user",
          "type": "address"
        },
        {
          "internalType": "uint256",
          "name": "timestamp",
          "type": "uint256"
        }
      ],
      "stateMutability": "view",
      "type": "function",
      "constant": true
    },
    {
      "inputs": [
        {
          "internalType": "string",
          "name": "",
          "type": "string"
        },
        {
          "internalType": "string",
          "name": "",
          "type": "string"
        }
      ],
      "name": "permissions",
      "outputs": [
        {
          "internalType": "bool",
          "name": "",
          "type": "bool"
        }
      ],
      "stateMutability": "view",
      "type": "function",
      "constant": true
    },
    {
      "inputs": [],
      "name": "recordCount",
      "outputs": [
        {
          "internalType": "uint256",
          "name": "",
          "type": "uint256"
        }
      ],
      "stateMutability": "view",
      "type": "function",
      "constant": true
    },
    {
      "inputs": [
        {
          "internalType": "uint256",
          "name": "",
          "type": "uint256"
        }
      ],
      "name": "records",
      "outputs": [
        {
          "internalType": "uint256",
          "name": "id",
          "type": "uint256"
        },
        {
          "internalType": "string",
          "name": "ipfsHash",
          "type": "string"
        },
        {
          "internalType": "string",
          "name": "title",
          "type": "string"
        },
        {
          "internalType": "address",
          "name": "owner",
          "type": "address"
        },
        {
          "internalType": "bool",
          "name": "exists",
          "type": "bool"
        }
      ],
      "stateMutability": "view",
      "type": "function",
      "constant": true
    },
    {
      "inputs": [],
      "name": "getRecordCount",
      "outputs": [
        {
          "internalType": "uint256",
          "name": "",
          "type": "uint256"
        }
      ],
      "stateMutability": "view",
      "type": "function",
      "constant": true
    },
    {
      "inputs": [
        {
          "internalType": "string",
          "name": "role",
          "type": "string"
        },
        {
          "internalType": "string",
          "name": "_ipfsHash",
          "type": "string"
        },
        {
          "internalType": "string",
          "name": "_title",
          "type": "string"
        }
      ],
      "name": "createRecord",
      "outputs": [],
      "stateMutability": "nonpayable",
      "type": "function"
    },
    {
      "inputs": [
        {
          "internalType": "string",
          "name": "role",
          "type": "string"
        },
        {
          "internalType": "uint256",
          "name": "_id",
          "type": "uint256"
        },
        {
          "internalType": "string",
          "name": "_ipfsHash",
          "type": "string"
        },
        {
          "internalType": "string",
          "name": "_title",
          "type": "string"
        }
      ],
      "name": "updateRecord",
      "outputs": [],
      "stateMutability": "nonpayable",
      "type": "function"
    },
    {
      "inputs": [
        {
          "internalType": "string",
          "name": "role",
          "type": "string"
        },
        {
          "internalType": "uint256",
          "name": "_id",
          "type": "uint256"
        }
      ],
      "name": "deleteRecord",
      "outputs": [],
      "stateMutability": "nonpayable",
      "type": "function"
    },
    {
      "inputs": [
        {
          "internalType": "string",
          "name": "role",
          "type": "string"
        },
        {
          "internalType": "uint256",
          "name": "_recordId",
          "type": "uint256"
        },
        {
          "internalType": "string",
          "name": "_ipfsHash",
          "type": "string"
        },
        {
          "internalType": "string",
          "name": "_action",
          "type": "string"
        }
      ],
      "name": "logActivity",
      "outputs": [],
      "stateMutability": "nonpayable",
      "type": "function"
    },
    {
      "inputs": [
        {
          "internalType": "string",
          "name": "role",
          "type": "string"
        },
        {
          "internalType": "uint256",
          "name": "_id",
          "type": "uint256"
        }
      ],
      "name": "getRecord",
      "outputs": [
        {
          "components": [
            {
              "internalType": "uint256",
              "name": "id",
              "type": "uint256"
            },
            {
              "internalType": "string",
              "name": "ipfsHash",
              "type": "string"
            },
            {
              "internalType": "string",
              "name": "title",
              "type": "string"
            },
            {
              "internalType": "address",
              "name": "owner",
              "type": "address"
            },
            {
              "internalType": "bool",
              "name": "exists",
              "type": "bool"
            }
          ],
          "internalType": "struct DocumentVault.Record",
          "name": "",
          "type": "tuple"
        }
      ],
      "stateMutability": "view",
      "type": "function",
      "constant": true
    },
    {
      "inputs": [
        {
          "internalType": "string",
          "name": "role",
          "type": "string"
        }
      ],
      "name": "getAllRecords",
      "outputs": [
        {
          "components": [
            {
              "internalType": "uint256",
              "name": "id",
              "type": "uint256"
            },
            {
              "internalType": "string",
              "name": "ipfsHash",
              "type": "string"
            },
            {
              "internalType": "string",
              "name": "title",
              "type": "string"
            },
            {
              "internalType": "address",
              "name": "owner",
              "type": "address"
            },
            {
              "internalType": "bool",
              "name": "exists",
              "type": "bool"
            }
          ],
          "internalType": "struct DocumentVault.Record[]",
          "name": "",
          "type": "tuple[]"
        }
      ],
      "stateMutability": "view",
      "type": "function",
      "constant": true
    },
    {
      "inputs": [
        {
          "internalType": "string",
          "name": "role",
          "type": "string"
        },
        {
          "internalType": "uint256",
          "name": "_recordId",
          "type": "uint256"
        }
      ],
      "name": "getActivities",
      "outputs": [
        {
          "components": [
            {
              "internalType": "uint256",
              "name": "recordId",
              "type": "uint256"
            },
            {
              "internalType": "string",
              "name": "ipfsHash",
              "type": "string"
            },
            {
              "internalType": "string",
              "name": "action",
              "type": "string"
            },
            {
              "internalType": "address",
              "name": "user",
              "type": "address"
            },
            {
              "internalType": "uint256",
              "name": "timestamp",
              "type": "uint256"
            }
          ],
          "internalType": "struct DocumentVault.Activity[]",
          "name": "",
          "type": "tuple[]"
        }
      ],
      "stateMutability": "view",
      "type": "function",
      "constant": true
    }
  ],
  "bytecode": "0x60806040523480156200001157600080fd5b5060016003604051620000249062000795565b9081526020016040518091039020604051620000409062000767565b908152602001604051809103902060006101000a81548160ff02191690831515021790555060016003604051620000779062000795565b9081526020016040518091039020604051620000939062000739565b908152602001604051809103902060006101000a81548160ff02191690831515021790555060016003604051620000ca9062000795565b9081526020016040518091039020604051620000e6906200077e565b908152602001604051809103902060006101000a81548160ff021916908315150217905550600160036040516200011d9062000795565b908152602001604051809103902060405162000139906200070b565b908152602001604051809103902060006101000a81548160ff02191690831515021790555060016003604051620001709062000795565b90815260200160405180910390206040516200018c9062000750565b908152602001604051809103902060006101000a81548160ff02191690831515021790555060016003604051620001c39062000795565b9081526020016040518091039020604051620001df90620006f4565b908152602001604051809103902060006101000a81548160ff02191690831515021790555060016003604051620002169062000795565b90815260200160405180910390206040516200023290620007ac565b908152602001604051809103902060006101000a81548160ff02191690831515021790555060016003604051620002699062000722565b9081526020016040518091039020604051620002859062000767565b908152602001604051809103902060006101000a81548160ff02191690831515021790555060006003604051620002bc9062000722565b9081526020016040518091039020604051620002d89062000739565b908152602001604051809103902060006101000a81548160ff021916908315150217905550600060036040516200030f9062000722565b90815260200160405180910390206040516200032b906200077e565b908152602001604051809103902060006101000a81548160ff02191690831515021790555060016003604051620003629062000722565b90815260200160405180910390206040516200037e906200070b565b908152602001604051809103902060006101000a81548160ff02191690831515021790555060016003604051620003b59062000722565b9081526020016040518091039020604051620003d19062000750565b908152602001604051809103902060006101000a81548160ff02191690831515021790555060006003604051620004089062000722565b90815260200160405180910390206040516200042490620006f4565b908152602001604051809103902060006101000a81548160ff021916908315150217905550600160036040516200045b9062000722565b90815260200160405180910390206040516200047790620007ac565b908152602001604051809103902060006101000a81548160ff021916908315150217905550620007ce565b6000620004b1600d83620007c3565b91507f676574416c6c5265636f726473000000000000000000000000000000000000006000830152600d82019050919050565b6000620004f3600b83620007c3565b91507f6c6f6741637469766974790000000000000000000000000000000000000000006000830152600b82019050919050565b600062000535600483620007c3565b91507f55736572000000000000000000000000000000000000000000000000000000006000830152600482019050919050565b600062000577600683620007c3565b91507f75706461746500000000000000000000000000000000000000000000000000006000830152600682019050919050565b6000620005b9600983620007c3565b91507f6765745265636f726400000000000000000000000000000000000000000000006000830152600982019050919050565b6000620005fb600683620007c3565b91507f63726561746500000000000000000000000000000000000000000000000000006000830152600682019050919050565b60006200063d600683620007c3565b91507f64656c65746500000000000000000000000000000000000000000000000000006000830152600682019050919050565b60006200067f600583620007c3565b91507f41646d696e0000000000000000000000000000000000000000000000000000006000830152600582019050919050565b6000620006c1600d83620007c3565b91507f67657441637469766974696573000000000000000000000000000000000000006000830152600d82019050919050565b60006200070182620004a2565b9150819050919050565b60006200071882620004e4565b9150819050919050565b60006200072f8262000526565b9150819050919050565b6000620007468262000568565b9150819050919050565b60006200075d82620005aa565b9150819050919050565b60006200077482620005ec565b9150819050919050565b60006200078b826200062e565b9150819050919050565b6000620007a28262000670565b9150819050919050565b6000620007b982620006b2565b9150819050919050565b600081905092915050565b6127e180620007de6000396000f3fe608060405234801561001057600080fd5b50600436106100b45760003560e01c8063bc60f6a111610071578063bc60f6a1146101a3578063bf8bae7b146101d3578063ca267f2814610203578063dcf7402f14610221578063facff5d21461023d578063fcfc1a7614610259576100b4565b806334461067146100b95780633812514f146100ed57806378d573a21461010957806389953a6314610139578063900407bc14610155578063a45b737414610173575b600080fd5b6100d360048036038101906100ce9190611e4a565b61028d565b6040516100e4959493929190612424565b60405180910390f35b61010760048036038101906101029190611d4b565b610400565b005b610123600480360381019061011e9190611c07565b61073f565b60405161013091906122ee565b60405180910390f35b610153600480360381019061014e9190611d9f565b610b00565b005b61015d610dc3565b60405161016a919061238d565b60405180910390f35b61018d60048036038101906101889190611c48565b610dc9565b60405161019a9190612310565b60405180910390f35b6101bd60048036038101906101b89190611d4b565b610e24565b6040516101ca919061236b565b60405180910390f35b6101ed60048036038101906101e89190611d4b565b6110d0565b6040516101fa91906122cc565b60405180910390f35b61020b61134f565b604051610218919061238d565b60405180910390f35b61023b60048036038101906102369190611d9f565b611359565b005b61025760048036038101906102529190611cb4565b6115a0565b005b610273600480360381019061026e9190611e73565b6118cb565b604051610284959493929190612485565b60405180910390f35b60006020528060005260406000206000915090508060000154908060010180546102b69061267b565b80601f01602080910402602001604051908101604052809291908181526020018280546102e29061267b565b801561032f5780601f106103045761010080835404028352916020019161032f565b820191906000526020600020905b81548152906001019060200180831161031257829003601f168201915b5050505050908060020180546103449061267b565b80601f01602080910402602001604051908101604052809291908181526020018280546103709061267b565b80156103bd5780601f10610392576101008083540402835291602001916103bd565b820191906000526020600020905b8154815290600101906020018083116103a057829003601f168201915b5050505050908060030160009054906101000a900473ffffffffffffffffffffffffffffffffffffffff16908060030160149054906101000a900460ff16905085565b816040518060400160405280600681526020017f64656c65746500000000000000000000000000000000000000000000000000008152506104418282611a4e565b610480576040517f08c379a00000000000000000000000000000000000000000000000000000000081526004016104779061232b565b60405180910390fd5b60025483111580156104b1575060008084815260200190815260200160002060030160149054906101000a900460ff165b6104f0576040517f08c379a00000000000000000000000000000000000000000000000000000000081526004016104e79061234b565b60405180910390fd5b600080600085815260200190815260200160002060030160146101000a81548160ff021916908315150217905550600160008481526020019081526020016000206040518060a0016040528085815260200160008087815260200190815260200160002060010180546105629061267b565b80601f016020809104026020016040519081016040528092919081815260200182805461058e9061267b565b80156105db5780601f106105b0576101008083540402835291602001916105db565b820191906000526020600020905b8154815290600101906020018083116105be57829003601f168201915b505050505081526020016040518060400160405280600781526020017f44656c657465640000000000000000000000000000000000000000000000000081525081526020013373ffffffffffffffffffffffffffffffffffffffff16815260200142815250908060018154018082558091505060019003906000526020600020906005020160009091909190915060008201518160000155602082015181600101908051906020019061068f929190611aa0565b5060408201518160020190805190602001906106ac929190611aa0565b5060608201518160030160006101000a81548173ffffffffffffffffffffffffffffffffffffffff021916908373ffffffffffffffffffffffffffffffffffffffff1602179055506080820151816004015550507f7d14a037f6460104a7e358ca6256314e3b495e7d360a781b444e183be65c18b283336040516107319291906123a8565b60405180910390a150505050565b6060610780826040518060400160405280600d81526020017f676574416c6c5265636f72647300000000000000000000000000000000000000815250611a4e565b6107bf576040517f08c379a00000000000000000000000000000000000000000000000000000000081526004016107b69061232b565b60405180910390fd5b600080600190505b600254811161081a5760008082815260200190815260200160002060030160149054906101000a900460ff1615610807578180610803906126ad565b9250505b8080610812906126ad565b9150506107c7565b5060008167ffffffffffffffff81111561085d577f4e487b7100000000000000000000000000000000000000000000000000000000600052604160045260246000fd5b60405190808252806020026020018201604052801561089657816020015b610883611b26565b81526020019060019003908161087b5790505b509050600080600190505b6002548111610af45760008082815260200190815260200160002060030160149054906101000a900460ff1615610ae1576000808281526020019081526020016000206040518060a0016040529081600082015481526020016001820180546109099061267b565b80601f01602080910402602001604051908101604052809291908181526020018280546109359061267b565b80156109825780601f1061095757610100808354040283529160200191610982565b820191906000526020600020905b81548152906001019060200180831161096557829003601f168201915b5050505050815260200160028201805461099b9061267b565b80601f01602080910402602001604051908101604052809291908181526020018280546109c79061267b565b8015610a145780601f106109e957610100808354040283529160200191610a14565b820191906000526020600020905b8154815290600101906020018083116109f757829003601f168201915b505050505081526020016003820160009054906101000a900473ffffffffffffffffffffffffffffffffffffffff1673ffffffffffffffffffffffffffffffffffffffff1673ffffffffffffffffffffffffffffffffffffffff1681526020016003820160149054906101000a900460ff161515151581525050838381518110610ac7577f4e487b7100000000000000000000000000000000000000000000000000000000600052603260045260246000fd5b60200260200101819052508180610add906126ad565b9250505b8080610aec906126ad565b9150506108a1565b50819350505050919050565b836040518060400160405280600681526020017f7570646174650000000000000000000000000000000000000000000000000000815250610b418282611a4e565b610b80576040517f08c379a0000000000000000000000000000000000000000000000000000000008152600401610b779061232b565b60405180910390fd5b6002548511158015610bb1575060008086815260200190815260200160002060030160149054906101000a900460ff165b610bf0576040517f08c379a0000000000000000000000000000000000000000000000000000000008152600401610be79061234b565b60405180910390fd5b6000806000878152602001908152602001600020905084816001019080519060200190610c1e929190611aa0565b5083816002019080519060200190610c37929190611aa0565b50600160008781526020019081526020016000206040518060a001604052808881526020018781526020016040518060400160405280600781526020017f557064617465640000000000000000000000000000000000000000000000000081525081526020013373ffffffffffffffffffffffffffffffffffffffff168152602001428152509080600181540180825580915050600190039060005260206000209060050201600090919091909150600082015181600001556020820151816001019080519060200190610d0c929190611aa0565b506040820151816002019080519060200190610d29929190611aa0565b5060608201518160030160006101000a81548173ffffffffffffffffffffffffffffffffffffffff021916908373ffffffffffffffffffffffffffffffffffffffff1602179055506080820151816004015550507fd8ffe0afb9f36890ae7921bcf8011f5cb28986a631f29a27d134e285b3aee54986868633604051610db294939291906123d1565b60405180910390a150505050505050565b60025481565b600382805160208101820180518482526020830160208501208183528095505050505050818051602081018201805184825260208301602085012081835280955050505050506000915091509054906101000a900460ff1681565b610e2c611b26565b610e6b836040518060400160405280600981526020017f6765745265636f72640000000000000000000000000000000000000000000000815250611a4e565b610eaa576040517f08c379a0000000000000000000000000000000000000000000000000000000008152600401610ea19061232b565b60405180910390fd5b60008083815260200190815260200160002060030160149054906101000a900460ff16610f0c576040517f08c379a0000000000000000000000000000000000000000000000000000000008152600401610f039061234b565b60405180910390fd5b6000808381526020019081526020016000206040518060a001604052908160008201548152602001600182018054610f439061267b565b80601f0160208091040260200160405190810160405280929190818152602001828054610f6f9061267b565b8015610fbc5780601f10610f9157610100808354040283529160200191610fbc565b820191906000526020600020905b815481529060010190602001808311610f9f57829003601f168201915b50505050508152602001600282018054610fd59061267b565b80601f01602080910402602001604051908101604052809291908181526020018280546110019061267b565b801561104e5780601f106110235761010080835404028352916020019161104e565b820191906000526020600020905b81548152906001019060200180831161103157829003601f168201915b505050505081526020016003820160009054906101000a900473ffffffffffffffffffffffffffffffffffffffff1673ffffffffffffffffffffffffffffffffffffffff1673ffffffffffffffffffffffffffffffffffffffff1681526020016003820160149054906101000a900460ff161515151581525050905092915050565b6060611111836040518060400160405280600d81526020017f6765744163746976697469657300000000000000000000000000000000000000815250611a4e565b611150576040517f08c379a00000000000000000000000000000000000000000000000000000000081526004016111479061232b565b60405180910390fd5b60016000838152602001908152602001600020805480602002602001604051908101604052809291908181526020016000905b8282101561134357838290600052602060002090600502016040518060a0016040529081600082015481526020016001820180546111c09061267b565b80601f01602080910402602001604051908101604052809291908181526020018280546111ec9061267b565b80156112395780601f1061120e57610100808354040283529160200191611239565b820191906000526020600020905b81548152906001019060200180831161121c57829003601f168201915b505050505081526020016002820180546112529061267b565b80601f016020809104026020016040519081016040528092919081815260200182805461127e9061267b565b80156112cb5780601f106112a0576101008083540402835291602001916112cb565b820191906000526020600020905b8154815290600101906020018083116112ae57829003601f168201915b505050505081526020016003820160009054906101000a900473ffffffffffffffffffffffffffffffffffffffff1673ffffffffffffffffffffffffffffffffffffffff1673ffffffffffffffffffffffffffffffffffffffff16815260200160048201548152505081526020019060010190611183565b50505050905092915050565b6000600254905090565b836040518060400160405280600b81526020017f6c6f67416374697669747900000000000000000000000000000000000000000081525061139a8282611a4e565b6113d9576040517f08c379a00000000000000000000000000000000000000000000000000000000081526004016113d09061232b565b60405180910390fd5b600254851115801561140a575060008086815260200190815260200160002060030160149054906101000a900460ff165b611449576040517f08c379a00000000000000000000000000000000000000000000000000000000081526004016114409061234b565b60405180910390fd5b600160008681526020019081526020016000206040518060a001604052808781526020018681526020018581526020013373ffffffffffffffffffffffffffffffffffffffff1681526020014281525090806001815401808255809150506001900390600052602060002090600502016000909190919091506000820151816000015560208201518160010190805190602001906114e8929190611aa0565b506040820151816002019080519060200190611505929190611aa0565b5060608201518160030160006101000a81548173ffffffffffffffffffffffffffffffffffffffff021916908373ffffffffffffffffffffffffffffffffffffffff1602179055506080820151816004015550507faadc88fb0f1054f963f31622c00da5bf460894632b729f712472c2026736be4d8585853342604051611590959493929190612485565b60405180910390a1505050505050565b826040518060400160405280600681526020017f63726561746500000000000000000000000000000000000000000000000000008152506115e18282611a4e565b611620576040517f08c379a00000000000000000000000000000000000000000000000000000000081526004016116179061232b565b60405180910390fd5b60026000815480929190611633906126ad565b91905055506040518060a0016040528060025481526020018581526020018481526020013373ffffffffffffffffffffffffffffffffffffffff1681526020016001151581525060008060025481526020019081526020016000206000820151816000015560208201518160010190805190602001906116b4929190611aa0565b5060408201518160020190805190602001906116d1929190611aa0565b5060608201518160030160006101000a81548173ffffffffffffffffffffffffffffffffffffffff021916908373ffffffffffffffffffffffffffffffffffffffff16021790555060808201518160030160146101000a81548160ff0219169083151502179055509050506001600060025481526020019081526020016000206040518060a0016040528060025481526020018681526020016040518060400160405280600781526020017f437265617465640000000000000000000000000000000000000000000000000081525081526020013373ffffffffffffffffffffffffffffffffffffffff168152602001428152509080600181540180825580915050600190039060005260206000209060050201600090919091909150600082015181600001556020820151816001019080519060200190611814929190611aa0565b506040820151816002019080519060200190611831929190611aa0565b5060608201518160030160006101000a81548173ffffffffffffffffffffffffffffffffffffffff021916908373ffffffffffffffffffffffffffffffffffffffff1602179055506080820151816004015550507f5516ba31be0cd157fb67a13dd3abcd94b19579a6caf18b78b1655bd1398d19bf6002548585336040516118bc94939291906123d1565b60405180910390a15050505050565b600160205281600052604060002081815481106118e757600080fd5b9060005260206000209060050201600091509150508060000154908060010180546119119061267b565b80601f016020809104026020016040519081016040528092919081815260200182805461193d9061267b565b801561198a5780601f1061195f5761010080835404028352916020019161198a565b820191906000526020600020905b81548152906001019060200180831161196d57829003601f168201915b50505050509080600201805461199f9061267b565b80601f01602080910402602001604051908101604052809291908181526020018280546119cb9061267b565b8015611a185780601f106119ed57610100808354040283529160200191611a18565b820191906000526020600020905b8154815290600101906020018083116119fb57829003601f168201915b5050505050908060030160009054906101000a900473ffffffffffffffffffffffffffffffffffffffff16908060040154905085565b6000600383604051611a6091906122b5565b908152602001604051809103902082604051611a7c91906122b5565b908152602001604051809103902060009054906101000a900460ff16905092915050565b828054611aac9061267b565b90600052602060002090601f016020900481019282611ace5760008555611b15565b82601f10611ae757805160ff1916838001178555611b15565b82800160010185558215611b15579182015b82811115611b14578251825591602001919060010190611af9565b5b509050611b229190611b6d565b5090565b6040518060a00160405280600081526020016060815260200160608152602001600073ffffffffffffffffffffffffffffffffffffffff1681526020016000151581525090565b5b80821115611b86576000816000905550600101611b6e565b5090565b6000611b9d611b9884612517565b6124e6565b905082815260208101848484011115611bb557600080fd5b611bc0848285612639565b509392505050565b600082601f830112611bd957600080fd5b8135611be9848260208601611b8a565b91505092915050565b600081359050611c0181612794565b92915050565b600060208284031215611c1957600080fd5b600082013567ffffffffffffffff811115611c3357600080fd5b611c3f84828501611bc8565b91505092915050565b60008060408385031215611c5b57600080fd5b600083013567ffffffffffffffff811115611c7557600080fd5b611c8185828601611bc8565b925050602083013567ffffffffffffffff811115611c9e57600080fd5b611caa85828601611bc8565b9150509250929050565b600080600060608486031215611cc957600080fd5b600084013567ffffffffffffffff811115611ce357600080fd5b611cef86828701611bc8565b935050602084013567ffffffffffffffff811115611d0c57600080fd5b611d1886828701611bc8565b925050604084013567ffffffffffffffff811115611d3557600080fd5b611d4186828701611bc8565b9150509250925092565b60008060408385031215611d5e57600080fd5b600083013567ffffffffffffffff811115611d7857600080fd5b611d8485828601611bc8565b9250506020611d9585828601611bf2565b9150509250929050565b60008060008060808587031215611db557600080fd5b600085013567ffffffffffffffff811115611dcf57600080fd5b611ddb87828801611bc8565b9450506020611dec87828801611bf2565b935050604085013567ffffffffffffffff811115611e0957600080fd5b611e1587828801611bc8565b925050606085013567ffffffffffffffff811115611e3257600080fd5b611e3e87828801611bc8565b91505092959194509250565b600060208284031215611e5c57600080fd5b6000611e6a84828501611bf2565b91505092915050565b60008060408385031215611e8657600080fd5b6000611e9485828601611bf2565b9250506020611ea585828601611bf2565b9150509250929050565b6000611ebb8383612120565b905092915050565b6000611ecf838361219d565b905092915050565b611ee0816125f1565b82525050565b611eef816125f1565b82525050565b6000611f0082612567565b611f0a81856125a2565b935083602082028501611f1c85612547565b8060005b85811015611f585784840389528151611f398582611eaf565b9450611f4483612588565b925060208a01995050600181019050611f20565b50829750879550505050505092915050565b6000611f7582612572565b611f7f81856125b3565b935083602082028501611f9185612557565b8060005b85811015611fcd5784840389528151611fae8582611ec3565b9450611fb983612595565b925060208a01995050600181019050611f95565b50829750879550505050505092915050565b611fe881612603565b82525050565b611ff781612603565b82525050565b60006120088261257d565b61201281856125c4565b9350612022818560208601612648565b61202b81612783565b840191505092915050565b60006120418261257d565b61204b81856125d5565b935061205b818560208601612648565b61206481612783565b840191505092915050565b600061207a8261257d565b61208481856125e6565b9350612094818560208601612648565b80840191505092915050565b60006120ad601d836125d5565b91507f4163636573732064656e6965643a20496e636f727265637420726f6c650000006000830152602082019050919050565b60006120ed6016836125d5565b91507f5265636f726420646f6573206e6f742065786973742e000000000000000000006000830152602082019050919050565b600060a0830160008301516121386000860182612297565b50602083015184820360208601526121508282611ffd565b9150506040830151848203604086015261216a8282611ffd565b915050606083015161217f6060860182611ed7565b5060808301516121926080860182612297565b508091505092915050565b600060a0830160008301516121b56000860182612297565b50602083015184820360208601526121cd8282611ffd565b915050604083015184820360408601526121e78282611ffd565b91505060608301516121fc6060860182611ed7565b50608083015161220f6080860182611fdf565b508091505092915050565b600060a0830160008301516122326000860182612297565b506020830151848203602086015261224a8282611ffd565b915050604083015184820360408601526122648282611ffd565b91505060608301516122796060860182611ed7565b50608083015161228c6080860182611fdf565b508091505092915050565b6122a08161262f565b82525050565b6122af8161262f565b82525050565b60006122c1828461206f565b915081905092915050565b600060208201905081810360008301526122e68184611ef5565b905092915050565b600060208201905081810360008301526123088184611f6a565b905092915050565b60006020820190506123256000830184611fee565b92915050565b60006020820190508181036000830152612344816120a0565b9050919050565b60006020820190508181036000830152612364816120e0565b9050919050565b60006020820190508181036000830152612385818461221a565b905092915050565b60006020820190506123a260008301846122a6565b92915050565b60006040820190506123bd60008301856122a6565b6123ca6020830184611ee6565b9392505050565b60006080820190506123e660008301876122a6565b81810360208301526123f88186612036565b9050818103604083015261240c8185612036565b905061241b6060830184611ee6565b95945050505050565b600060a08201905061243960008301886122a6565b818103602083015261244b8187612036565b9050818103604083015261245f8186612036565b905061246e6060830185611ee6565b61247b6080830184611fee565b9695505050505050565b600060a08201905061249a60008301886122a6565b81810360208301526124ac8187612036565b905081810360408301526124c08186612036565b90506124cf6060830185611ee6565b6124dc60808301846122a6565b9695505050505050565b6000604051905081810181811067ffffffffffffffff8211171561250d5761250c612754565b5b8060405250919050565b600067ffffffffffffffff82111561253257612531612754565b5b601f19601f8301169050602081019050919050565b6000819050602082019050919050565b6000819050602082019050919050565b600081519050919050565b600081519050919050565b600081519050919050565b6000602082019050919050565b6000602082019050919050565b600082825260208201905092915050565b600082825260208201905092915050565b600082825260208201905092915050565b600082825260208201905092915050565b600081905092915050565b60006125fc8261260f565b9050919050565b60008115159050919050565b600073ffffffffffffffffffffffffffffffffffffffff82169050919050565b6000819050919050565b82818337600083830152505050565b60005b8381101561266657808201518184015260208101905061264b565b83811115612675576000848401525b50505050565b6000600282049050600182168061269357607f821691505b602082108114156126a7576126a6612725565b5b50919050565b60006126b88261262f565b91507fffffffffffffffffffffffffffffffffffffffffffffffffffffffffffffffff8214156126eb576126ea6126f6565b5b600182019050919050565b7f4e487b7100000000000000000000000000000000000000000000000000000000600052601160045260246000fd5b7f4e487b7100000000000000000000000000000000000000000000000000000000600052602260045260246000fd5b7f4e487b7100000000000000000000000000000000000000000000000000000000600052604160045260246000fd5b6000601f19601f8301169050919050565b61279d8161262f565b81146127a857600080fd5b5056fea26469706673582212202f8fde5241aa85607d1f8375595bc96dbbb59a79ee6639a177918c93c9445af964736f6c63430008000033",
  "immutableReferences": {},
  "source": "// SPDX-License-Identifier: MIT\npragma solidity ^0.8.0;\n\ncontract DocumentVault {\n    struct Record {\n        uint id;\n        string ipfsHash;\n        string title;\n        address owner;\n        bool exists;\n    }\n\n    struct Activity {\n        uint recordId;\n        string ipfsHash;\n        string action;\n        address user;\n        uint timestamp;\n    }\n\n    mapping(uint => Record) public records;\n    mapping(uint => Activity[]) public activities;\n    uint public recordCount;\n\n    event RecordCreated(uint id, string ipfsHash, string title, address owner);\n\n    event RecordUpdated(uint id, string ipfsHash, string title, address owner);\n\n    event RecordDeleted(uint id, address owner);\n\n    event ActivityLogged(\n        uint recordId,\n        string ipfsHash,\n        string action,\n        address user,\n        uint timestamp\n    );\n\n    event PermissionChecked(string role, string action, bool result);\n\n    mapping(string => mapping(string => bool)) public permissions;\n\n    constructor() {\n        permissions[\"Admin\"][\"create\"] = true;\n        permissions[\"Admin\"][\"update\"] = true;\n        permissions[\"Admin\"][\"delete\"] = true;\n        permissions[\"Admin\"][\"logActivity\"] = true;\n        permissions[\"Admin\"][\"getRecord\"] = true;\n        permissions[\"Admin\"][\"getAllRecords\"] = true;\n        permissions[\"Admin\"][\"getActivities\"] = true;\n\n        permissions[\"User\"][\"create\"] = true;\n        permissions[\"User\"][\"update\"] = false;\n        permissions[\"User\"][\"delete\"] = false;\n        permissions[\"User\"][\"logActivity\"] = true;\n        permissions[\"User\"][\"getRecord\"] = true;\n        permissions[\"User\"][\"getAllRecords\"] = false;\n        permissions[\"User\"][\"getActivities\"] = true;\n    }\n\n    modifier onlyRole(string memory role, string memory action) {\n        require(checkRole(role, action), \"Access denied: Incorrect role\");\n        _;\n    }\n    function getRecordCount() public view returns (uint) {\n        return recordCount;\n    }\n\n    function createRecord(\n        string memory role,\n        string memory _ipfsHash,\n        string memory _title\n    ) public onlyRole(role, \"create\") {\n        recordCount++;\n        records[recordCount] = Record(\n            recordCount,\n            _ipfsHash,\n            _title,\n            msg.sender,\n            true\n        );\n        activities[recordCount].push(\n            Activity(\n                recordCount,\n                _ipfsHash,\n                \"Created\",\n                msg.sender,\n                block.timestamp\n            )\n        );\n        emit RecordCreated(recordCount, _ipfsHash, _title, msg.sender);\n    }\n\n    function updateRecord(\n        string memory role,\n        uint _id,\n        string memory _ipfsHash,\n        string memory _title\n    ) public onlyRole(role, \"update\") {\n        require(\n            _id <= recordCount && records[_id].exists,\n            \"Record does not exist.\"\n        );\n        Record storage record = records[_id];\n        record.ipfsHash = _ipfsHash;\n        record.title = _title;\n        activities[_id].push(\n            Activity(_id, _ipfsHash, \"Updated\", msg.sender, block.timestamp)\n        );\n        emit RecordUpdated(_id, _ipfsHash, _title, msg.sender);\n    }\n\n    function deleteRecord(\n        string memory role,\n        uint _id\n    ) public onlyRole(role, \"delete\") {\n        require(\n            _id <= recordCount && records[_id].exists,\n            \"Record does not exist.\"\n        );\n        records[_id].exists = false;\n        activities[_id].push(\n            Activity(\n                _id,\n                records[_id].ipfsHash,\n                \"Deleted\",\n                msg.sender,\n                block.timestamp\n            )\n        );\n        emit RecordDeleted(_id, msg.sender);\n    }\n\n    function logActivity(\n        string memory role,\n        uint _recordId,\n        string memory _ipfsHash,\n        string memory _action\n    ) public onlyRole(role, \"logActivity\") {\n        require(\n            _recordId <= recordCount && records[_recordId].exists,\n            \"Record does not exist.\"\n        );\n        activities[_recordId].push(\n            Activity(_recordId, _ipfsHash, _action, msg.sender, block.timestamp)\n        );\n        emit ActivityLogged(\n            _recordId,\n            _ipfsHash,\n            _action,\n            msg.sender,\n            block.timestamp\n        );\n    }\n\n    function checkRole(\n        string memory role,\n        string memory action\n    ) internal view returns (bool) {\n        return permissions[role][action];\n    }\n\n    function getRecord(\n        string memory role,\n        uint _id\n    ) public view returns (Record memory) {\n        require(checkRole(role, \"getRecord\"), \"Access denied: Incorrect role\");\n        require(records[_id].exists, \"Record does not exist.\");\n        return records[_id];\n    }\n\n    function getAllRecords(\n        string memory role\n    ) public view returns (Record[] memory) {\n        require(\n            checkRole(role, \"getAllRecords\"),\n            \"Access denied: Incorrect role\"\n        );\n        uint activeCount = 0;\n        for (uint i = 1; i <= recordCount; i++) {\n            if (records[i].exists) {\n                activeCount++;\n            }\n        }\n        Record[] memory allRecords = new Record[](activeCount);\n        uint counter = 0;\n        for (uint i = 1; i <= recordCount; i++) {\n            if (records[i].exists) {\n                allRecords[counter] = records[i];\n                counter++;\n            }\n        }\n        return allRecords;\n    }\n\n    function getActivities(\n        string memory role,\n        uint _recordId\n    ) public view returns (Activity[] memory) {\n        require(\n            checkRole(role, \"getActivities\"),\n            \"Access denied: Incorrect role\"\n        );\n        return activities[_recordId];\n    }\n}\n",
  "sourcePath": "/Users/sgr/Development/sg_hack/Contracts/contracts/DocumentVault.sol",
  "compiler": {
    "name": "solc",
    "version": "0.8.0+commit.c7dfd78e.Emscripten.clang"
  },
  "schemaVersion": "3.4.16",
  "updatedAt": "2024-07-13T23:22:00.275Z",
  "networkType": "ethereum",
  "devdoc": {
    "kind": "dev",
    "methods": {},
    "version": 1
  },
  "userdoc": {
    "kind": "user",
    "methods": {},
    "version": 1
  }
}