{
  "contractName": "DocumentVault",
  "abi": [
    {
      "inputs": [],
      "stateMutability": "nonpayable",
      "type": "constructor"
    },
    {
      "anonymous": false,
      "inputs": [
        {
          "indexed": false,
          "internalType": "uint256",
          "name": "recordId",
          "type": "uint256"
        },
        {
          "indexed": false,
          "internalType": "string",
          "name": "ipfsHash",
          "type": "string"
        },
        {
          "indexed": false,
          "internalType": "string",
          "name": "action",
          "type": "string"
        },
        {
          "indexed": false,
          "internalType": "address",
          "name": "user",
          "type": "address"
        },
        {
          "indexed": false,
          "internalType": "uint256",
          "name": "timestamp",
          "type": "uint256"
        }
      ],
      "name": "ActivityLogged",
      "type": "event"
    },
    {
      "anonymous": false,
      "inputs": [
        {
          "indexed": false,
          "internalType": "string",
          "name": "role",
          "type": "string"
        },
        {
          "indexed": false,
          "internalType": "string",
          "name": "action",
          "type": "string"
        },
        {
          "indexed": false,
          "internalType": "bool",
          "name": "result",
          "type": "bool"
        }
      ],
      "name": "PermissionChecked",
      "type": "event"
    },
    {
      "anonymous": false,
      "inputs": [
        {
          "indexed": false,
          "internalType": "uint256",
          "name": "id",
          "type": "uint256"
        },
        {
          "indexed": false,
          "internalType": "string",
          "name": "ipfsHash",
          "type": "string"
        },
        {
          "indexed": false,
          "internalType": "string",
          "name": "title",
          "type": "string"
        },
        {
          "indexed": false,
          "internalType": "address",
          "name": "owner",
          "type": "address"
        }
      ],
      "name": "RecordCreated",
      "type": "event"
    },
    {
      "anonymous": false,
      "inputs": [
        {
          "indexed": false,
          "internalType": "uint256",
          "name": "id",
          "type": "uint256"
        },
        {
          "indexed": false,
          "internalType": "address",
          "name": "owner",
          "type": "address"
        }
      ],
      "name": "RecordDeleted",
      "type": "event"
    },
    {
      "anonymous": false,
      "inputs": [
        {
          "indexed": false,
          "internalType": "uint256",
          "name": "id",
          "type": "uint256"
        },
        {
          "indexed": false,
          "internalType": "string",
          "name": "ipfsHash",
          "type": "string"
        },
        {
          "indexed": false,
          "internalType": "string",
          "name": "title",
          "type": "string"
        },
        {
          "indexed": false,
          "internalType": "address",
          "name": "owner",
          "type": "address"
        }
      ],
      "name": "RecordUpdated",
      "type": "event"
    },
    {
      "inputs": [
        {
          "internalType": "uint256",
          "name": "",
          "type": "uint256"
        },
        {
          "internalType": "uint256",
          "name": "",
          "type": "uint256"
        }
      ],
      "name": "activities",
      "outputs": [
        {
          "internalType": "uint256",
          "name": "recordId",
          "type": "uint256"
        },
        {
          "internalType": "string",
          "name": "ipfsHash",
          "type": "string"
        },
        {
          "internalType": "string",
          "name": "action",
          "type": "string"
        },
        {
          "internalType": "address",
          "name": "user",
          "type": "address"
        },
        {
          "internalType": "uint256",
          "name": "timestamp",
          "type": "uint256"
        }
      ],
      "stateMutability": "view",
      "type": "function",
      "constant": true
    },
    {
      "inputs": [
        {
          "internalType": "string",
          "name": "",
          "type": "string"
        },
        {
          "internalType": "string",
          "name": "",
          "type": "string"
        }
      ],
      "name": "permissions",
      "outputs": [
        {
          "internalType": "bool",
          "name": "",
          "type": "bool"
        }
      ],
      "stateMutability": "view",
      "type": "function",
      "constant": true
    },
    {
      "inputs": [],
      "name": "recordCount",
      "outputs": [
        {
          "internalType": "uint256",
          "name": "",
          "type": "uint256"
        }
      ],
      "stateMutability": "view",
      "type": "function",
      "constant": true
    },
    {
      "inputs": [
        {
          "internalType": "uint256",
          "name": "",
          "type": "uint256"
        }
      ],
      "name": "records",
      "outputs": [
        {
          "internalType": "uint256",
          "name": "id",
          "type": "uint256"
        },
        {
          "internalType": "string",
          "name": "ipfsHash",
          "type": "string"
        },
        {
          "internalType": "string",
          "name": "title",
          "type": "string"
        },
        {
          "internalType": "address",
          "name": "owner",
          "type": "address"
        },
        {
          "internalType": "bool",
          "name": "exists",
          "type": "bool"
        }
      ],
      "stateMutability": "view",
      "type": "function",
      "constant": true
    },
    {
      "inputs": [
        {
          "internalType": "string",
          "name": "role",
          "type": "string"
        },
        {
          "internalType": "string",
          "name": "_ipfsHash",
          "type": "string"
        },
        {
          "internalType": "string",
          "name": "_title",
          "type": "string"
        }
      ],
      "name": "createRecord",
      "outputs": [],
      "stateMutability": "nonpayable",
      "type": "function"
    },
    {
      "inputs": [
        {
          "internalType": "string",
          "name": "role",
          "type": "string"
        },
        {
          "internalType": "uint256",
          "name": "_id",
          "type": "uint256"
        },
        {
          "internalType": "string",
          "name": "_ipfsHash",
          "type": "string"
        },
        {
          "internalType": "string",
          "name": "_title",
          "type": "string"
        }
      ],
      "name": "updateRecord",
      "outputs": [],
      "stateMutability": "nonpayable",
      "type": "function"
    },
    {
      "inputs": [
        {
          "internalType": "string",
          "name": "role",
          "type": "string"
        },
        {
          "internalType": "uint256",
          "name": "_id",
          "type": "uint256"
        }
      ],
      "name": "deleteRecord",
      "outputs": [],
      "stateMutability": "nonpayable",
      "type": "function"
    },
    {
      "inputs": [
        {
          "internalType": "string",
          "name": "role",
          "type": "string"
        },
        {
          "internalType": "uint256",
          "name": "_recordId",
          "type": "uint256"
        },
        {
          "internalType": "string",
          "name": "_ipfsHash",
          "type": "string"
        },
        {
          "internalType": "string",
          "name": "_action",
          "type": "string"
        }
      ],
      "name": "logActivity",
      "outputs": [],
      "stateMutability": "nonpayable",
      "type": "function"
    },
    {
      "inputs": [
        {
          "internalType": "string",
          "name": "role",
          "type": "string"
        },
        {
          "internalType": "uint256",
          "name": "_id",
          "type": "uint256"
        }
      ],
      "name": "getRecord",
      "outputs": [
        {
          "components": [
            {
              "internalType": "uint256",
              "name": "id",
              "type": "uint256"
            },
            {
              "internalType": "string",
              "name": "ipfsHash",
              "type": "string"
            },
            {
              "internalType": "string",
              "name": "title",
              "type": "string"
            },
            {
              "internalType": "address",
              "name": "owner",
              "type": "address"
            },
            {
              "internalType": "bool",
              "name": "exists",
              "type": "bool"
            }
          ],
          "internalType": "struct DocumentVault.Record",
          "name": "",
          "type": "tuple"
        }
      ],
      "stateMutability": "view",
      "type": "function",
      "constant": true
    },
    {
      "inputs": [
        {
          "internalType": "string",
          "name": "role",
          "type": "string"
        }
      ],
      "name": "getAllRecords",
      "outputs": [
        {
          "components": [
            {
              "internalType": "uint256",
              "name": "id",
              "type": "uint256"
            },
            {
              "internalType": "string",
              "name": "ipfsHash",
              "type": "string"
            },
            {
              "internalType": "string",
              "name": "title",
              "type": "string"
            },
            {
              "internalType": "address",
              "name": "owner",
              "type": "address"
            },
            {
              "internalType": "bool",
              "name": "exists",
              "type": "bool"
            }
          ],
          "internalType": "struct DocumentVault.Record[]",
          "name": "",
          "type": "tuple[]"
        }
      ],
      "stateMutability": "view",
      "type": "function",
      "constant": true
    },
    {
      "inputs": [
        {
          "internalType": "string",
          "name": "role",
          "type": "string"
        },
        {
          "internalType": "uint256",
          "name": "_recordId",
          "type": "uint256"
        }
      ],
      "name": "getActivities",
      "outputs": [
        {
          "components": [
            {
              "internalType": "uint256",
              "name": "recordId",
              "type": "uint256"
            },
            {
              "internalType": "string",
              "name": "ipfsHash",
              "type": "string"
            },
            {
              "internalType": "string",
              "name": "action",
              "type": "string"
            },
            {
              "internalType": "address",
              "name": "user",
              "type": "address"
            },
            {
              "internalType": "uint256",
              "name": "timestamp",
              "type": "uint256"
            }
          ],
          "internalType": "struct DocumentVault.Activity[]",
          "name": "",
          "type": "tuple[]"
        }
      ],
      "stateMutability": "view",
      "type": "function",
      "constant": true
    }
  ],
  "bytecode": "0x60806040523480156200001157600080fd5b5060016003604051620000249062000795565b9081526020016040518091039020604051620000409062000767565b908152602001604051809103902060006101000a81548160ff02191690831515021790555060016003604051620000779062000795565b9081526020016040518091039020604051620000939062000739565b908152602001604051809103902060006101000a81548160ff02191690831515021790555060016003604051620000ca9062000795565b9081526020016040518091039020604051620000e6906200077e565b908152602001604051809103902060006101000a81548160ff021916908315150217905550600160036040516200011d9062000795565b908152602001604051809103902060405162000139906200070b565b908152602001604051809103902060006101000a81548160ff02191690831515021790555060016003604051620001709062000795565b90815260200160405180910390206040516200018c9062000750565b908152602001604051809103902060006101000a81548160ff02191690831515021790555060016003604051620001c39062000795565b9081526020016040518091039020604051620001df90620006f4565b908152602001604051809103902060006101000a81548160ff02191690831515021790555060016003604051620002169062000795565b90815260200160405180910390206040516200023290620007ac565b908152602001604051809103902060006101000a81548160ff02191690831515021790555060016003604051620002699062000722565b9081526020016040518091039020604051620002859062000767565b908152602001604051809103902060006101000a81548160ff02191690831515021790555060006003604051620002bc9062000722565b9081526020016040518091039020604051620002d89062000739565b908152602001604051809103902060006101000a81548160ff021916908315150217905550600060036040516200030f9062000722565b90815260200160405180910390206040516200032b906200077e565b908152602001604051809103902060006101000a81548160ff02191690831515021790555060016003604051620003629062000722565b90815260200160405180910390206040516200037e906200070b565b908152602001604051809103902060006101000a81548160ff02191690831515021790555060016003604051620003b59062000722565b9081526020016040518091039020604051620003d19062000750565b908152602001604051809103902060006101000a81548160ff02191690831515021790555060006003604051620004089062000722565b90815260200160405180910390206040516200042490620006f4565b908152602001604051809103902060006101000a81548160ff021916908315150217905550600160036040516200045b9062000722565b90815260200160405180910390206040516200047790620007ac565b908152602001604051809103902060006101000a81548160ff021916908315150217905550620007ce565b6000620004b1600d83620007c3565b91507f676574416c6c5265636f726473000000000000000000000000000000000000006000830152600d82019050919050565b6000620004f3600b83620007c3565b91507f6c6f6741637469766974790000000000000000000000000000000000000000006000830152600b82019050919050565b600062000535600483620007c3565b91507f55736572000000000000000000000000000000000000000000000000000000006000830152600482019050919050565b600062000577600683620007c3565b91507f75706461746500000000000000000000000000000000000000000000000000006000830152600682019050919050565b6000620005b9600983620007c3565b91507f6765745265636f726400000000000000000000000000000000000000000000006000830152600982019050919050565b6000620005fb600683620007c3565b91507f63726561746500000000000000000000000000000000000000000000000000006000830152600682019050919050565b60006200063d600683620007c3565b91507f64656c65746500000000000000000000000000000000000000000000000000006000830152600682019050919050565b60006200067f600583620007c3565b91507f41646d696e0000000000000000000000000000000000000000000000000000006000830152600582019050919050565b6000620006c1600d83620007c3565b91507f67657441637469766974696573000000000000000000000000000000000000006000830152600d82019050919050565b60006200070182620004a2565b9150819050919050565b60006200071882620004e4565b9150819050919050565b60006200072f8262000526565b9150819050919050565b6000620007468262000568565b9150819050919050565b60006200075d82620005aa565b9150819050919050565b60006200077482620005ec565b9150819050919050565b60006200078b826200062e565b9150819050919050565b6000620007a28262000670565b9150819050919050565b6000620007b982620006b2565b9150819050919050565b600081905092915050565b6127ae80620007de6000396000f3fe608060405234801561001057600080fd5b50600436106100a95760003560e01c8063a45b737411610071578063a45b737414610168578063bc60f6a114610198578063bf8bae7b146101c8578063dcf7402f146101f8578063facff5d214610214578063fcfc1a7614610230576100a9565b806334461067146100ae5780633812514f146100e257806378d573a2146100fe57806389953a631461012e578063900407bc1461014a575b600080fd5b6100c860048036038101906100c39190611e17565b610264565b6040516100d99594939291906123f1565b60405180910390f35b6100fc60048036038101906100f79190611d18565b6103d7565b005b61011860048036038101906101139190611bd4565b610716565b60405161012591906122bb565b60405180910390f35b61014860048036038101906101439190611d6c565b610ad7565b005b610152610d9a565b60405161015f919061235a565b60405180910390f35b610182600480360381019061017d9190611c15565b610da0565b60405161018f91906122dd565b60405180910390f35b6101b260048036038101906101ad9190611d18565b610dfb565b6040516101bf9190612338565b60405180910390f35b6101e260048036038101906101dd9190611d18565b6110a7565b6040516101ef9190612299565b60405180910390f35b610212600480360381019061020d9190611d6c565b611326565b005b61022e60048036038101906102299190611c81565b61156d565b005b61024a60048036038101906102459190611e40565b611898565b60405161025b959493929190612452565b60405180910390f35b600060205280600052604060002060009150905080600001549080600101805461028d90612648565b80601f01602080910402602001604051908101604052809291908181526020018280546102b990612648565b80156103065780601f106102db57610100808354040283529160200191610306565b820191906000526020600020905b8154815290600101906020018083116102e957829003601f168201915b50505050509080600201805461031b90612648565b80601f016020809104026020016040519081016040528092919081815260200182805461034790612648565b80156103945780601f1061036957610100808354040283529160200191610394565b820191906000526020600020905b81548152906001019060200180831161037757829003601f168201915b5050505050908060030160009054906101000a900473ffffffffffffffffffffffffffffffffffffffff16908060030160149054906101000a900460ff16905085565b816040518060400160405280600681526020017f64656c65746500000000000000000000000000000000000000000000000000008152506104188282611a1b565b610457576040517f08c379a000000000000000000000000000000000000000000000000000000000815260040161044e906122f8565b60405180910390fd5b6002548311158015610488575060008084815260200190815260200160002060030160149054906101000a900460ff165b6104c7576040517f08c379a00000000000000000000000000000000000000000000000000000000081526004016104be90612318565b60405180910390fd5b600080600085815260200190815260200160002060030160146101000a81548160ff021916908315150217905550600160008481526020019081526020016000206040518060a00160405280858152602001600080878152602001908152602001600020600101805461053990612648565b80601f016020809104026020016040519081016040528092919081815260200182805461056590612648565b80156105b25780601f10610587576101008083540402835291602001916105b2565b820191906000526020600020905b81548152906001019060200180831161059557829003601f168201915b505050505081526020016040518060400160405280600781526020017f44656c657465640000000000000000000000000000000000000000000000000081525081526020013373ffffffffffffffffffffffffffffffffffffffff168152602001428152509080600181540180825580915050600190039060005260206000209060050201600090919091909150600082015181600001556020820151816001019080519060200190610666929190611a6d565b506040820151816002019080519060200190610683929190611a6d565b5060608201518160030160006101000a81548173ffffffffffffffffffffffffffffffffffffffff021916908373ffffffffffffffffffffffffffffffffffffffff1602179055506080820151816004015550507f7d14a037f6460104a7e358ca6256314e3b495e7d360a781b444e183be65c18b28333604051610708929190612375565b60405180910390a150505050565b6060610757826040518060400160405280600d81526020017f676574416c6c5265636f72647300000000000000000000000000000000000000815250611a1b565b610796576040517f08c379a000000000000000000000000000000000000000000000000000000000815260040161078d906122f8565b60405180910390fd5b600080600190505b60025481116107f15760008082815260200190815260200160002060030160149054906101000a900460ff16156107de5781806107da9061267a565b9250505b80806107e99061267a565b91505061079e565b5060008167ffffffffffffffff811115610834577f4e487b7100000000000000000000000000000000000000000000000000000000600052604160045260246000fd5b60405190808252806020026020018201604052801561086d57816020015b61085a611af3565b8152602001906001900390816108525790505b509050600080600190505b6002548111610acb5760008082815260200190815260200160002060030160149054906101000a900460ff1615610ab8576000808281526020019081526020016000206040518060a0016040529081600082015481526020016001820180546108e090612648565b80601f016020809104026020016040519081016040528092919081815260200182805461090c90612648565b80156109595780601f1061092e57610100808354040283529160200191610959565b820191906000526020600020905b81548152906001019060200180831161093c57829003601f168201915b5050505050815260200160028201805461097290612648565b80601f016020809104026020016040519081016040528092919081815260200182805461099e90612648565b80156109eb5780601f106109c0576101008083540402835291602001916109eb565b820191906000526020600020905b8154815290600101906020018083116109ce57829003601f168201915b505050505081526020016003820160009054906101000a900473ffffffffffffffffffffffffffffffffffffffff1673ffffffffffffffffffffffffffffffffffffffff1673ffffffffffffffffffffffffffffffffffffffff1681526020016003820160149054906101000a900460ff161515151581525050838381518110610a9e577f4e487b7100000000000000000000000000000000000000000000000000000000600052603260045260246000fd5b60200260200101819052508180610ab49061267a565b9250505b8080610ac39061267a565b915050610878565b50819350505050919050565b836040518060400160405280600681526020017f7570646174650000000000000000000000000000000000000000000000000000815250610b188282611a1b565b610b57576040517f08c379a0000000000000000000000000000000000000000000000000000000008152600401610b4e906122f8565b60405180910390fd5b6002548511158015610b88575060008086815260200190815260200160002060030160149054906101000a900460ff165b610bc7576040517f08c379a0000000000000000000000000000000000000000000000000000000008152600401610bbe90612318565b60405180910390fd5b6000806000878152602001908152602001600020905084816001019080519060200190610bf5929190611a6d565b5083816002019080519060200190610c0e929190611a6d565b50600160008781526020019081526020016000206040518060a001604052808881526020018781526020016040518060400160405280600781526020017f557064617465640000000000000000000000000000000000000000000000000081525081526020013373ffffffffffffffffffffffffffffffffffffffff168152602001428152509080600181540180825580915050600190039060005260206000209060050201600090919091909150600082015181600001556020820151816001019080519060200190610ce3929190611a6d565b506040820151816002019080519060200190610d00929190611a6d565b5060608201518160030160006101000a81548173ffffffffffffffffffffffffffffffffffffffff021916908373ffffffffffffffffffffffffffffffffffffffff1602179055506080820151816004015550507fd8ffe0afb9f36890ae7921bcf8011f5cb28986a631f29a27d134e285b3aee54986868633604051610d89949392919061239e565b60405180910390a150505050505050565b60025481565b600382805160208101820180518482526020830160208501208183528095505050505050818051602081018201805184825260208301602085012081835280955050505050506000915091509054906101000a900460ff1681565b610e03611af3565b610e42836040518060400160405280600981526020017f6765745265636f72640000000000000000000000000000000000000000000000815250611a1b565b610e81576040517f08c379a0000000000000000000000000000000000000000000000000000000008152600401610e78906122f8565b60405180910390fd5b60008083815260200190815260200160002060030160149054906101000a900460ff16610ee3576040517f08c379a0000000000000000000000000000000000000000000000000000000008152600401610eda90612318565b60405180910390fd5b6000808381526020019081526020016000206040518060a001604052908160008201548152602001600182018054610f1a90612648565b80601f0160208091040260200160405190810160405280929190818152602001828054610f4690612648565b8015610f935780601f10610f6857610100808354040283529160200191610f93565b820191906000526020600020905b815481529060010190602001808311610f7657829003601f168201915b50505050508152602001600282018054610fac90612648565b80601f0160208091040260200160405190810160405280929190818152602001828054610fd890612648565b80156110255780601f10610ffa57610100808354040283529160200191611025565b820191906000526020600020905b81548152906001019060200180831161100857829003601f168201915b505050505081526020016003820160009054906101000a900473ffffffffffffffffffffffffffffffffffffffff1673ffffffffffffffffffffffffffffffffffffffff1673ffffffffffffffffffffffffffffffffffffffff1681526020016003820160149054906101000a900460ff161515151581525050905092915050565b60606110e8836040518060400160405280600d81526020017f6765744163746976697469657300000000000000000000000000000000000000815250611a1b565b611127576040517f08c379a000000000000000000000000000000000000000000000000000000000815260040161111e906122f8565b60405180910390fd5b60016000838152602001908152602001600020805480602002602001604051908101604052809291908181526020016000905b8282101561131a57838290600052602060002090600502016040518060a00160405290816000820154815260200160018201805461119790612648565b80601f01602080910402602001604051908101604052809291908181526020018280546111c390612648565b80156112105780601f106111e557610100808354040283529160200191611210565b820191906000526020600020905b8154815290600101906020018083116111f357829003601f168201915b5050505050815260200160028201805461122990612648565b80601f016020809104026020016040519081016040528092919081815260200182805461125590612648565b80156112a25780601f10611277576101008083540402835291602001916112a2565b820191906000526020600020905b81548152906001019060200180831161128557829003601f168201915b505050505081526020016003820160009054906101000a900473ffffffffffffffffffffffffffffffffffffffff1673ffffffffffffffffffffffffffffffffffffffff1673ffffffffffffffffffffffffffffffffffffffff1681526020016004820154815250508152602001906001019061115a565b50505050905092915050565b836040518060400160405280600b81526020017f6c6f6741637469766974790000000000000000000000000000000000000000008152506113678282611a1b565b6113a6576040517f08c379a000000000000000000000000000000000000000000000000000000000815260040161139d906122f8565b60405180910390fd5b60025485111580156113d7575060008086815260200190815260200160002060030160149054906101000a900460ff165b611416576040517f08c379a000000000000000000000000000000000000000000000000000000000815260040161140d90612318565b60405180910390fd5b600160008681526020019081526020016000206040518060a001604052808781526020018681526020018581526020013373ffffffffffffffffffffffffffffffffffffffff1681526020014281525090806001815401808255809150506001900390600052602060002090600502016000909190919091506000820151816000015560208201518160010190805190602001906114b5929190611a6d565b5060408201518160020190805190602001906114d2929190611a6d565b5060608201518160030160006101000a81548173ffffffffffffffffffffffffffffffffffffffff021916908373ffffffffffffffffffffffffffffffffffffffff1602179055506080820151816004015550507faadc88fb0f1054f963f31622c00da5bf460894632b729f712472c2026736be4d858585334260405161155d959493929190612452565b60405180910390a1505050505050565b826040518060400160405280600681526020017f63726561746500000000000000000000000000000000000000000000000000008152506115ae8282611a1b565b6115ed576040517f08c379a00000000000000000000000000000000000000000000000000000000081526004016115e4906122f8565b60405180910390fd5b600260008154809291906116009061267a565b91905055506040518060a0016040528060025481526020018581526020018481526020013373ffffffffffffffffffffffffffffffffffffffff168152602001600115158152506000806002548152602001908152602001600020600082015181600001556020820151816001019080519060200190611681929190611a6d565b50604082015181600201908051906020019061169e929190611a6d565b5060608201518160030160006101000a81548173ffffffffffffffffffffffffffffffffffffffff021916908373ffffffffffffffffffffffffffffffffffffffff16021790555060808201518160030160146101000a81548160ff0219169083151502179055509050506001600060025481526020019081526020016000206040518060a0016040528060025481526020018681526020016040518060400160405280600781526020017f437265617465640000000000000000000000000000000000000000000000000081525081526020013373ffffffffffffffffffffffffffffffffffffffff1681526020014281525090806001815401808255809150506001900390600052602060002090600502016000909190919091506000820151816000015560208201518160010190805190602001906117e1929190611a6d565b5060408201518160020190805190602001906117fe929190611a6d565b5060608201518160030160006101000a81548173ffffffffffffffffffffffffffffffffffffffff021916908373ffffffffffffffffffffffffffffffffffffffff1602179055506080820151816004015550507f5516ba31be0cd157fb67a13dd3abcd94b19579a6caf18b78b1655bd1398d19bf600254858533604051611889949392919061239e565b60405180910390a15050505050565b600160205281600052604060002081815481106118b457600080fd5b9060005260206000209060050201600091509150508060000154908060010180546118de90612648565b80601f016020809104026020016040519081016040528092919081815260200182805461190a90612648565b80156119575780601f1061192c57610100808354040283529160200191611957565b820191906000526020600020905b81548152906001019060200180831161193a57829003601f168201915b50505050509080600201805461196c90612648565b80601f016020809104026020016040519081016040528092919081815260200182805461199890612648565b80156119e55780601f106119ba576101008083540402835291602001916119e5565b820191906000526020600020905b8154815290600101906020018083116119c857829003601f168201915b5050505050908060030160009054906101000a900473ffffffffffffffffffffffffffffffffffffffff16908060040154905085565b6000600383604051611a2d9190612282565b908152602001604051809103902082604051611a499190612282565b908152602001604051809103902060009054906101000a900460ff16905092915050565b828054611a7990612648565b90600052602060002090601f016020900481019282611a9b5760008555611ae2565b82601f10611ab457805160ff1916838001178555611ae2565b82800160010185558215611ae2579182015b82811115611ae1578251825591602001919060010190611ac6565b5b509050611aef9190611b3a565b5090565b6040518060a00160405280600081526020016060815260200160608152602001600073ffffffffffffffffffffffffffffffffffffffff1681526020016000151581525090565b5b80821115611b53576000816000905550600101611b3b565b5090565b6000611b6a611b65846124e4565b6124b3565b905082815260208101848484011115611b8257600080fd5b611b8d848285612606565b509392505050565b600082601f830112611ba657600080fd5b8135611bb6848260208601611b57565b91505092915050565b600081359050611bce81612761565b92915050565b600060208284031215611be657600080fd5b600082013567ffffffffffffffff811115611c0057600080fd5b611c0c84828501611b95565b91505092915050565b60008060408385031215611c2857600080fd5b600083013567ffffffffffffffff811115611c4257600080fd5b611c4e85828601611b95565b925050602083013567ffffffffffffffff811115611c6b57600080fd5b611c7785828601611b95565b9150509250929050565b600080600060608486031215611c9657600080fd5b600084013567ffffffffffffffff811115611cb057600080fd5b611cbc86828701611b95565b935050602084013567ffffffffffffffff811115611cd957600080fd5b611ce586828701611b95565b925050604084013567ffffffffffffffff811115611d0257600080fd5b611d0e86828701611b95565b9150509250925092565b60008060408385031215611d2b57600080fd5b600083013567ffffffffffffffff811115611d4557600080fd5b611d5185828601611b95565b9250506020611d6285828601611bbf565b9150509250929050565b60008060008060808587031215611d8257600080fd5b600085013567ffffffffffffffff811115611d9c57600080fd5b611da887828801611b95565b9450506020611db987828801611bbf565b935050604085013567ffffffffffffffff811115611dd657600080fd5b611de287828801611b95565b925050606085013567ffffffffffffffff811115611dff57600080fd5b611e0b87828801611b95565b91505092959194509250565b600060208284031215611e2957600080fd5b6000611e3784828501611bbf565b91505092915050565b60008060408385031215611e5357600080fd5b6000611e6185828601611bbf565b9250506020611e7285828601611bbf565b9150509250929050565b6000611e8883836120ed565b905092915050565b6000611e9c838361216a565b905092915050565b611ead816125be565b82525050565b611ebc816125be565b82525050565b6000611ecd82612534565b611ed7818561256f565b935083602082028501611ee985612514565b8060005b85811015611f255784840389528151611f068582611e7c565b9450611f1183612555565b925060208a01995050600181019050611eed565b50829750879550505050505092915050565b6000611f428261253f565b611f4c8185612580565b935083602082028501611f5e85612524565b8060005b85811015611f9a5784840389528151611f7b8582611e90565b9450611f8683612562565b925060208a01995050600181019050611f62565b50829750879550505050505092915050565b611fb5816125d0565b82525050565b611fc4816125d0565b82525050565b6000611fd58261254a565b611fdf8185612591565b9350611fef818560208601612615565b611ff881612750565b840191505092915050565b600061200e8261254a565b61201881856125a2565b9350612028818560208601612615565b61203181612750565b840191505092915050565b60006120478261254a565b61205181856125b3565b9350612061818560208601612615565b80840191505092915050565b600061207a601d836125a2565b91507f4163636573732064656e6965643a20496e636f727265637420726f6c650000006000830152602082019050919050565b60006120ba6016836125a2565b91507f5265636f726420646f6573206e6f742065786973742e000000000000000000006000830152602082019050919050565b600060a0830160008301516121056000860182612264565b506020830151848203602086015261211d8282611fca565b915050604083015184820360408601526121378282611fca565b915050606083015161214c6060860182611ea4565b50608083015161215f6080860182612264565b508091505092915050565b600060a0830160008301516121826000860182612264565b506020830151848203602086015261219a8282611fca565b915050604083015184820360408601526121b48282611fca565b91505060608301516121c96060860182611ea4565b5060808301516121dc6080860182611fac565b508091505092915050565b600060a0830160008301516121ff6000860182612264565b50602083015184820360208601526122178282611fca565b915050604083015184820360408601526122318282611fca565b91505060608301516122466060860182611ea4565b5060808301516122596080860182611fac565b508091505092915050565b61226d816125fc565b82525050565b61227c816125fc565b82525050565b600061228e828461203c565b915081905092915050565b600060208201905081810360008301526122b38184611ec2565b905092915050565b600060208201905081810360008301526122d58184611f37565b905092915050565b60006020820190506122f26000830184611fbb565b92915050565b600060208201905081810360008301526123118161206d565b9050919050565b60006020820190508181036000830152612331816120ad565b9050919050565b6000602082019050818103600083015261235281846121e7565b905092915050565b600060208201905061236f6000830184612273565b92915050565b600060408201905061238a6000830185612273565b6123976020830184611eb3565b9392505050565b60006080820190506123b36000830187612273565b81810360208301526123c58186612003565b905081810360408301526123d98185612003565b90506123e86060830184611eb3565b95945050505050565b600060a0820190506124066000830188612273565b81810360208301526124188187612003565b9050818103604083015261242c8186612003565b905061243b6060830185611eb3565b6124486080830184611fbb565b9695505050505050565b600060a0820190506124676000830188612273565b81810360208301526124798187612003565b9050818103604083015261248d8186612003565b905061249c6060830185611eb3565b6124a96080830184612273565b9695505050505050565b6000604051905081810181811067ffffffffffffffff821117156124da576124d9612721565b5b8060405250919050565b600067ffffffffffffffff8211156124ff576124fe612721565b5b601f19601f8301169050602081019050919050565b6000819050602082019050919050565b6000819050602082019050919050565b600081519050919050565b600081519050919050565b600081519050919050565b6000602082019050919050565b6000602082019050919050565b600082825260208201905092915050565b600082825260208201905092915050565b600082825260208201905092915050565b600082825260208201905092915050565b600081905092915050565b60006125c9826125dc565b9050919050565b60008115159050919050565b600073ffffffffffffffffffffffffffffffffffffffff82169050919050565b6000819050919050565b82818337600083830152505050565b60005b83811015612633578082015181840152602081019050612618565b83811115612642576000848401525b50505050565b6000600282049050600182168061266057607f821691505b60208210811415612674576126736126f2565b5b50919050565b6000612685826125fc565b91507fffffffffffffffffffffffffffffffffffffffffffffffffffffffffffffffff8214156126b8576126b76126c3565b5b600182019050919050565b7f4e487b7100000000000000000000000000000000000000000000000000000000600052601160045260246000fd5b7f4e487b7100000000000000000000000000000000000000000000000000000000600052602260045260246000fd5b7f4e487b7100000000000000000000000000000000000000000000000000000000600052604160045260246000fd5b6000601f19601f8301169050919050565b61276a816125fc565b811461277557600080fd5b5056fea2646970667358221220078e86721e49c4a02644188f5fe60ac6ac8119f603cbf05df12534d883b1c05e64736f6c63430008000033",
  "immutableReferences": {},
  "source": "// SPDX-License-Identifier: MIT\npragma solidity ^0.8.0;\n\ncontract DocumentVault {\n    struct Record {\n        uint id;\n        string ipfsHash;\n        string title;\n        address owner;\n        bool exists;\n    }\n\n    struct Activity {\n        uint recordId;\n        string ipfsHash;\n        string action;\n        address user;\n        uint timestamp;\n    }\n\n    mapping(uint => Record) public records;\n    mapping(uint => Activity[]) public activities;\n    uint public recordCount;\n\n    event RecordCreated(\n        uint id,\n        string ipfsHash,\n        string title,\n        address owner\n    );\n\n    event RecordUpdated(\n        uint id,\n        string ipfsHash,\n        string title,\n        address owner\n    );\n\n    event RecordDeleted(\n        uint id,\n        address owner\n    );\n\n    event ActivityLogged(\n        uint recordId,\n        string ipfsHash,\n        string action,\n        address user,\n        uint timestamp\n    );\n\n    event PermissionChecked(\n        string role,\n        string action,\n        bool result\n    );\n\n    mapping(string => mapping(string => bool)) public permissions;\n\n    constructor() {\n        permissions[\"Admin\"][\"create\"] = true;\n        permissions[\"Admin\"][\"update\"] = true;\n        permissions[\"Admin\"][\"delete\"] = true;\n        permissions[\"Admin\"][\"logActivity\"] = true;\n        permissions[\"Admin\"][\"getRecord\"] = true;\n        permissions[\"Admin\"][\"getAllRecords\"] = true;\n        permissions[\"Admin\"][\"getActivities\"] = true;\n\n        permissions[\"User\"][\"create\"] = true;\n        permissions[\"User\"][\"update\"] = false;\n        permissions[\"User\"][\"delete\"] = false;\n        permissions[\"User\"][\"logActivity\"] = true;\n        permissions[\"User\"][\"getRecord\"] = true;\n        permissions[\"User\"][\"getAllRecords\"] = false;\n        permissions[\"User\"][\"getActivities\"] = true;\n    }\n\n    modifier onlyRole(string memory role, string memory action) {\n        require(checkRole(role, action), \"Access denied: Incorrect role\");\n        _;\n    }\n\n    function createRecord(string memory role, string memory _ipfsHash, string memory _title) public onlyRole(role, \"create\") {\n        recordCount++;\n        records[recordCount] = Record(recordCount, _ipfsHash, _title, msg.sender, true);\n        activities[recordCount].push(Activity(recordCount, _ipfsHash, \"Created\", msg.sender, block.timestamp));\n        emit RecordCreated(recordCount, _ipfsHash, _title, msg.sender);\n    }\n\n    function updateRecord(string memory role, uint _id, string memory _ipfsHash, string memory _title) public onlyRole(role, \"update\") {\n        require(_id <= recordCount && records[_id].exists, \"Record does not exist.\");\n        Record storage record = records[_id];\n        record.ipfsHash = _ipfsHash;\n        record.title = _title;\n        activities[_id].push(Activity(_id, _ipfsHash, \"Updated\", msg.sender, block.timestamp));\n        emit RecordUpdated(_id, _ipfsHash, _title, msg.sender);\n    }\n\n    function deleteRecord(string memory role, uint _id) public onlyRole(role, \"delete\") {\n        require(_id <= recordCount && records[_id].exists, \"Record does not exist.\");\n        records[_id].exists = false;\n        activities[_id].push(Activity(_id, records[_id].ipfsHash, \"Deleted\", msg.sender, block.timestamp));\n        emit RecordDeleted(_id, msg.sender);\n    }\n\n    function logActivity(string memory role, uint _recordId, string memory _ipfsHash, string memory _action) public onlyRole(role, \"logActivity\") {\n        require(_recordId <= recordCount && records[_recordId].exists, \"Record does not exist.\");\n        activities[_recordId].push(Activity(_recordId, _ipfsHash, _action, msg.sender, block.timestamp));\n        emit ActivityLogged(_recordId, _ipfsHash, _action, msg.sender, block.timestamp);\n    }\n\n    function checkRole(string memory role, string memory action) internal view returns (bool) {\n        return permissions[role][action];\n    }\n\n    function getRecord(string memory role, uint _id) public view returns (Record memory) {\n        require(checkRole(role, \"getRecord\"), \"Access denied: Incorrect role\");\n        require(records[_id].exists, \"Record does not exist.\");\n        return records[_id];\n    }\n\n    function getAllRecords(string memory role) public view returns (Record[] memory) {\n        require(checkRole(role, \"getAllRecords\"), \"Access denied: Incorrect role\");\n        uint activeCount = 0;\n        for (uint i = 1; i <= recordCount; i++) {\n            if (records[i].exists) {\n                activeCount++;\n            }\n        }\n        Record[] memory allRecords = new Record[](activeCount);\n        uint counter = 0;\n        for (uint i = 1; i <= recordCount; i++) {\n            if (records[i].exists) {\n                allRecords[counter] = records[i];\n                counter++;\n            }\n        }\n        return allRecords;\n    }\n\n    function getActivities(string memory role, uint _recordId) public view returns (Activity[] memory) {\n        require(checkRole(role, \"getActivities\"), \"Access denied: Incorrect role\");\n        return activities[_recordId];\n    }\n}",
  "sourcePath": "/Users/sgr/Development/sg_hack/Contracts/contracts/DocumentVault.sol",
  "compiler": {
    "name": "solc",
    "version": "0.8.0+commit.c7dfd78e.Emscripten.clang"
  },
  "schemaVersion": "3.4.16",
  "updatedAt": "2024-07-13T20:31:05.927Z",
  "networkType": "ethereum",
  "devdoc": {
    "kind": "dev",
    "methods": {},
    "version": 1
  },
  "userdoc": {
    "kind": "user",
    "methods": {},
    "version": 1
  }
}