{
  "contractName": "DocumentVault",
  "abi": [
    {
      "anonymous": false,
      "inputs": [
        {
          "indexed": false,
          "internalType": "uint256",
          "name": "recordId",
          "type": "uint256"
        },
        {
          "indexed": false,
          "internalType": "string",
          "name": "action",
          "type": "string"
        },
        {
          "indexed": false,
          "internalType": "address",
          "name": "user",
          "type": "address"
        },
        {
          "indexed": false,
          "internalType": "uint256",
          "name": "timestamp",
          "type": "uint256"
        }
      ],
      "name": "ActivityLogged",
      "type": "event"
    },
    {
      "anonymous": false,
      "inputs": [
        {
          "indexed": false,
          "internalType": "uint256",
          "name": "id",
          "type": "uint256"
        },
        {
          "indexed": false,
          "internalType": "string",
          "name": "ipfsHash",
          "type": "string"
        },
        {
          "indexed": false,
          "internalType": "string",
          "name": "title",
          "type": "string"
        },
        {
          "indexed": false,
          "internalType": "address",
          "name": "owner",
          "type": "address"
        }
      ],
      "name": "RecordCreated",
      "type": "event"
    },
    {
      "anonymous": false,
      "inputs": [
        {
          "indexed": false,
          "internalType": "uint256",
          "name": "id",
          "type": "uint256"
        },
        {
          "indexed": false,
          "internalType": "address",
          "name": "owner",
          "type": "address"
        }
      ],
      "name": "RecordDeleted",
      "type": "event"
    },
    {
      "anonymous": false,
      "inputs": [
        {
          "indexed": false,
          "internalType": "uint256",
          "name": "id",
          "type": "uint256"
        },
        {
          "indexed": false,
          "internalType": "string",
          "name": "ipfsHash",
          "type": "string"
        },
        {
          "indexed": false,
          "internalType": "string",
          "name": "title",
          "type": "string"
        },
        {
          "indexed": false,
          "internalType": "address",
          "name": "owner",
          "type": "address"
        }
      ],
      "name": "RecordUpdated",
      "type": "event"
    },
    {
      "inputs": [
        {
          "internalType": "string",
          "name": "ipfsHash",
          "type": "string"
        },
        {
          "internalType": "string",
          "name": "title",
          "type": "string"
        }
      ],
      "name": "createRecord",
      "outputs": [],
      "stateMutability": "nonpayable",
      "type": "function"
    },
    {
      "inputs": [
        {
          "internalType": "uint256",
          "name": "recordId",
          "type": "uint256"
        },
        {
          "internalType": "string",
          "name": "ipfsHash",
          "type": "string"
        },
        {
          "internalType": "string",
          "name": "title",
          "type": "string"
        }
      ],
      "name": "updateRecord",
      "outputs": [],
      "stateMutability": "nonpayable",
      "type": "function"
    },
    {
      "inputs": [
        {
          "internalType": "uint256",
          "name": "recordId",
          "type": "uint256"
        },
        {
          "internalType": "string",
          "name": "action",
          "type": "string"
        }
      ],
      "name": "logActivity",
      "outputs": [],
      "stateMutability": "nonpayable",
      "type": "function"
    },
    {
      "inputs": [
        {
          "internalType": "uint256",
          "name": "recordId",
          "type": "uint256"
        }
      ],
      "name": "deleteRecord",
      "outputs": [],
      "stateMutability": "nonpayable",
      "type": "function"
    },
    {
      "inputs": [
        {
          "internalType": "uint256",
          "name": "recordId",
          "type": "uint256"
        }
      ],
      "name": "getRecord",
      "outputs": [
        {
          "internalType": "uint256",
          "name": "",
          "type": "uint256"
        },
        {
          "internalType": "string",
          "name": "",
          "type": "string"
        },
        {
          "internalType": "string",
          "name": "",
          "type": "string"
        },
        {
          "internalType": "address",
          "name": "",
          "type": "address"
        }
      ],
      "stateMutability": "view",
      "type": "function",
      "constant": true
    },
    {
      "inputs": [],
      "name": "getAllRecords",
      "outputs": [
        {
          "components": [
            {
              "internalType": "uint256",
              "name": "id",
              "type": "uint256"
            },
            {
              "internalType": "string",
              "name": "ipfsHash",
              "type": "string"
            },
            {
              "internalType": "string",
              "name": "title",
              "type": "string"
            },
            {
              "internalType": "address",
              "name": "owner",
              "type": "address"
            }
          ],
          "internalType": "struct DocumentVault.Record[]",
          "name": "",
          "type": "tuple[]"
        }
      ],
      "stateMutability": "view",
      "type": "function",
      "constant": true
    },
    {
      "inputs": [
        {
          "internalType": "uint256",
          "name": "recordId",
          "type": "uint256"
        }
      ],
      "name": "getActivities",
      "outputs": [
        {
          "components": [
            {
              "internalType": "uint256",
              "name": "recordId",
              "type": "uint256"
            },
            {
              "internalType": "string",
              "name": "action",
              "type": "string"
            },
            {
              "internalType": "address",
              "name": "user",
              "type": "address"
            },
            {
              "internalType": "uint256",
              "name": "timestamp",
              "type": "uint256"
            }
          ],
          "internalType": "struct DocumentVault.Activity[]",
          "name": "",
          "type": "tuple[]"
        }
      ],
      "stateMutability": "view",
      "type": "function",
      "constant": true
    }
  ],
  "bytecode": "0x6080604052600160045534801561001557600080fd5b50611f33806100256000396000f3fe608060405234801561001057600080fd5b506004361061007d5760003560e01c80637f77095b1161005b5780637f77095b146100ed578063a7f9fe7214610109578063c090b4df14610127578063fca97fdb146101435761007d565b806303e9e60914610082578063061f9811146100b55780633812c6a8146100d1575b600080fd5b61009c600480360381019061009791906115ba565b610173565b6040516100ac9493929190611bc8565b60405180910390f35b6100cf60048036038101906100ca91906115ba565b6103e4565b005b6100eb60048036038101906100e69190611637565b6108e8565b005b610107600480360381019061010291906115e3565b610afc565b005b610111610d4f565b60405161011e9190611ab1565b60405180910390f35b610141600480360381019061013c919061154e565b610f32565b005b61015d600480360381019061015891906115ba565b6110ab565b60405161016a9190611a8f565b60405180910390f35b6000606080600080805490506002600087815260200190815260200160002054106101d3576040517f08c379a00000000000000000000000000000000000000000000000000000000081526004016101ca90611b33565b60405180910390fd5b600080600260008881526020019081526020016000205481548110610221577f4e487b7100000000000000000000000000000000000000000000000000000000600052603260045260246000fd5b90600052602060002090600402016040518060800160405290816000820154815260200160018201805461025490611dcd565b80601f016020809104026020016040519081016040528092919081815260200182805461028090611dcd565b80156102cd5780601f106102a2576101008083540402835291602001916102cd565b820191906000526020600020905b8154815290600101906020018083116102b057829003601f168201915b505050505081526020016002820180546102e690611dcd565b80601f016020809104026020016040519081016040528092919081815260200182805461031290611dcd565b801561035f5780601f106103345761010080835404028352916020019161035f565b820191906000526020600020905b81548152906001019060200180831161034257829003601f168201915b505050505081526020016003820160009054906101000a900473ffffffffffffffffffffffffffffffffffffffff1673ffffffffffffffffffffffffffffffffffffffff1673ffffffffffffffffffffffffffffffffffffffff1681525050905080600001518160200151826040015183606001519450945094509450509193509193565b3373ffffffffffffffffffffffffffffffffffffffff166000600260008481526020019081526020016000205481548110610448577f4e487b7100000000000000000000000000000000000000000000000000000000600052603260045260246000fd5b906000526020600020906004020160030160009054906101000a900473ffffffffffffffffffffffffffffffffffffffff1673ffffffffffffffffffffffffffffffffffffffff16146104d0576040517f08c379a00000000000000000000000000000000000000000000000000000000081526004016104c790611af3565b60405180910390fd5b600060026000838152602001908152602001600020549050600060016000805490506104fc9190611d1b565b90508082146107d4576000808281548110610540577f4e487b7100000000000000000000000000000000000000000000000000000000600052603260045260246000fd5b90600052602060002090600402016040518060800160405290816000820154815260200160018201805461057390611dcd565b80601f016020809104026020016040519081016040528092919081815260200182805461059f90611dcd565b80156105ec5780601f106105c1576101008083540402835291602001916105ec565b820191906000526020600020905b8154815290600101906020018083116105cf57829003601f168201915b5050505050815260200160028201805461060590611dcd565b80601f016020809104026020016040519081016040528092919081815260200182805461063190611dcd565b801561067e5780601f106106535761010080835404028352916020019161067e565b820191906000526020600020905b81548152906001019060200180831161066157829003601f168201915b505050505081526020016003820160009054906101000a900473ffffffffffffffffffffffffffffffffffffffff1673ffffffffffffffffffffffffffffffffffffffff1673ffffffffffffffffffffffffffffffffffffffff16815250509050806000848154811061071a577f4e487b7100000000000000000000000000000000000000000000000000000000600052603260045260246000fd5b906000526020600020906004020160008201518160000155602082015181600101908051906020019061074e92919061138f565b50604082015181600201908051906020019061076b92919061138f565b5060608201518160030160006101000a81548173ffffffffffffffffffffffffffffffffffffffff021916908373ffffffffffffffffffffffffffffffffffffffff16021790555090505082600260008360000151815260200190815260200160002081905550505b600080548061080c577f4e487b7100000000000000000000000000000000000000000000000000000000600052603160045260246000fd5b60019003818190600052602060002090600402016000808201600090556001820160006108399190611415565b6002820160006108499190611415565b6003820160006101000a81549073ffffffffffffffffffffffffffffffffffffffff0219169055505090556003600084815260200190815260200160002060006108939190611455565b60026000848152602001908152602001600020600090557f7d14a037f6460104a7e358ca6256314e3b495e7d360a781b444e183be65c18b283336040516108db929190611b53565b60405180910390a1505050565b3373ffffffffffffffffffffffffffffffffffffffff16600060026000868152602001908152602001600020548154811061094c577f4e487b7100000000000000000000000000000000000000000000000000000000600052603260045260246000fd5b906000526020600020906004020160030160009054906101000a900473ffffffffffffffffffffffffffffffffffffffff1673ffffffffffffffffffffffffffffffffffffffff16146109d4576040517f08c379a00000000000000000000000000000000000000000000000000000000081526004016109cb90611b13565b60405180910390fd5b816000600260008681526020019081526020016000205481548110610a22577f4e487b7100000000000000000000000000000000000000000000000000000000600052603260045260246000fd5b90600052602060002090600402016001019080519060200190610a4692919061138f565b50806000600260008681526020019081526020016000205481548110610a95577f4e487b7100000000000000000000000000000000000000000000000000000000600052603260045260246000fd5b90600052602060002090600402016002019080519060200190610ab992919061138f565b507fd8ffe0afb9f36890ae7921bcf8011f5cb28986a631f29a27d134e285b3aee54983838333604051610aef9493929190611bc8565b60405180910390a1505050565b3373ffffffffffffffffffffffffffffffffffffffff166000600260008581526020019081526020016000205481548110610b60577f4e487b7100000000000000000000000000000000000000000000000000000000600052603260045260246000fd5b906000526020600020906004020160030160009054906101000a900473ffffffffffffffffffffffffffffffffffffffff1673ffffffffffffffffffffffffffffffffffffffff1614610be8576040517f08c379a0000000000000000000000000000000000000000000000000000000008152600401610bdf90611ad3565b60405180910390fd5b600160405180608001604052808481526020018381526020013373ffffffffffffffffffffffffffffffffffffffff168152602001428152509080600181540180825580915050600190039060005260206000209060040201600090919091909150600082015181600001556020820151816001019080519060200190610c7092919061138f565b5060408201518160020160006101000a81548173ffffffffffffffffffffffffffffffffffffffff021916908373ffffffffffffffffffffffffffffffffffffffff1602179055506060820151816003015550506003600083815260200190815260200160002060018080549050610ce89190611d1b565b90806001815401808255809150506001900390600052602060002001600090919091909150557f03d7b3bee7b750a2246ea0838ad011e7598733a7d354ba39498853f3dd1b344282823342604051610d439493929190611b7c565b60405180910390a15050565b60606000805480602002602001604051908101604052809291908181526020016000905b82821015610f29578382906000526020600020906004020160405180608001604052908160008201548152602001600182018054610db090611dcd565b80601f0160208091040260200160405190810160405280929190818152602001828054610ddc90611dcd565b8015610e295780601f10610dfe57610100808354040283529160200191610e29565b820191906000526020600020905b815481529060010190602001808311610e0c57829003601f168201915b50505050508152602001600282018054610e4290611dcd565b80601f0160208091040260200160405190810160405280929190818152602001828054610e6e90611dcd565b8015610ebb5780601f10610e9057610100808354040283529160200191610ebb565b820191906000526020600020905b815481529060010190602001808311610e9e57829003601f168201915b505050505081526020016003820160009054906101000a900473ffffffffffffffffffffffffffffffffffffffff1673ffffffffffffffffffffffffffffffffffffffff1673ffffffffffffffffffffffffffffffffffffffff168152505081526020019060010190610d73565b50505050905090565b60006004549050600060405180608001604052808381526020018581526020018481526020013373ffffffffffffffffffffffffffffffffffffffff168152509080600181540180825580915050600190039060005260206000209060040201600090919091909150600082015181600001556020820151816001019080519060200190610fc192919061138f565b506040820151816002019080519060200190610fde92919061138f565b5060608201518160030160006101000a81548173ffffffffffffffffffffffffffffffffffffffff021916908373ffffffffffffffffffffffffffffffffffffffff1602179055505050600160008054905061103a9190611d1b565b60026000838152602001908152602001600020819055506004600081548092919061106490611dff565b91905055507f5516ba31be0cd157fb67a13dd3abcd94b19579a6caf18b78b1655bd1398d19bf8184843360405161109e9493929190611bc8565b60405180910390a1505050565b606060006003600084815260200190815260200160002080548060200260200160405190810160405280929190818152602001828054801561110c57602002820191906000526020600020905b8154815260200190600101908083116110f8575b505050505090506000815167ffffffffffffffff811115611156577f4e487b7100000000000000000000000000000000000000000000000000000000600052604160045260246000fd5b60405190808252806020026020018201604052801561118f57816020015b61117c611476565b8152602001906001900390816111745790505b50905060005b82518110156113845760018382815181106111d9577f4e487b7100000000000000000000000000000000000000000000000000000000600052603260045260246000fd5b602002602001015181548110611218577f4e487b7100000000000000000000000000000000000000000000000000000000600052603260045260246000fd5b90600052602060002090600402016040518060800160405290816000820154815260200160018201805461124b90611dcd565b80601f016020809104026020016040519081016040528092919081815260200182805461127790611dcd565b80156112c45780601f10611299576101008083540402835291602001916112c4565b820191906000526020600020905b8154815290600101906020018083116112a757829003601f168201915b505050505081526020016002820160009054906101000a900473ffffffffffffffffffffffffffffffffffffffff1673ffffffffffffffffffffffffffffffffffffffff1673ffffffffffffffffffffffffffffffffffffffff168152602001600382015481525050828281518110611366577f4e487b7100000000000000000000000000000000000000000000000000000000600052603260045260246000fd5b6020026020010181905250808061137c90611dff565b915050611195565b508092505050919050565b82805461139b90611dcd565b90600052602060002090601f0160209004810192826113bd5760008555611404565b82601f106113d657805160ff1916838001178555611404565b82800160010185558215611404579182015b828111156114035782518255916020019190600101906113e8565b5b50905061141191906114b4565b5090565b50805461142190611dcd565b6000825580601f106114335750611452565b601f01602090049060005260206000209081019061145191906114b4565b5b50565b508054600082559060005260206000209081019061147391906114b4565b50565b60405180608001604052806000815260200160608152602001600073ffffffffffffffffffffffffffffffffffffffff168152602001600081525090565b5b808211156114cd5760008160009055506001016114b5565b5090565b60006114e46114df84611c4c565b611c1b565b9050828152602081018484840111156114fc57600080fd5b611507848285611d8b565b509392505050565b600082601f83011261152057600080fd5b81356115308482602086016114d1565b91505092915050565b60008135905061154881611ee6565b92915050565b6000806040838503121561156157600080fd5b600083013567ffffffffffffffff81111561157b57600080fd5b6115878582860161150f565b925050602083013567ffffffffffffffff8111156115a457600080fd5b6115b08582860161150f565b9150509250929050565b6000602082840312156115cc57600080fd5b60006115da84828501611539565b91505092915050565b600080604083850312156115f657600080fd5b600061160485828601611539565b925050602083013567ffffffffffffffff81111561162157600080fd5b61162d8582860161150f565b9150509250929050565b60008060006060848603121561164c57600080fd5b600061165a86828701611539565b935050602084013567ffffffffffffffff81111561167757600080fd5b6116838682870161150f565b925050604084013567ffffffffffffffff8111156116a057600080fd5b6116ac8682870161150f565b9150509250925092565b60006116c283836119a4565b905092915050565b60006116d68383611a07565b905092915050565b6116e781611d4f565b82525050565b6116f681611d4f565b82525050565b600061170782611c9c565b6117118185611cd7565b93508360208202850161172385611c7c565b8060005b8581101561175f578484038952815161174085826116b6565b945061174b83611cbd565b925060208a01995050600181019050611727565b50829750879550505050505092915050565b600061177c82611ca7565b6117868185611ce8565b93508360208202850161179885611c8c565b8060005b858110156117d457848403895281516117b585826116ca565b94506117c083611cca565b925060208a0199505060018101905061179c565b50829750879550505050505092915050565b60006117f182611cb2565b6117fb8185611cf9565b935061180b818560208601611d9a565b61181481611ed5565b840191505092915050565b600061182a82611cb2565b6118348185611d0a565b9350611844818560208601611d9a565b61184d81611ed5565b840191505092915050565b6000611865601f83611d0a565b91507f4f6e6c7920746865206f776e65722063616e206c6f67206163746976697479006000830152602082019050919050565b60006118a5602483611d0a565b91507f4f6e6c7920746865206f776e65722063616e2064656c6574652074686520726560008301527f636f7264000000000000000000000000000000000000000000000000000000006020830152604082019050919050565b600061190b602483611d0a565b91507f4f6e6c7920746865206f776e65722063616e207570646174652074686520726560008301527f636f7264000000000000000000000000000000000000000000000000000000006020830152604082019050919050565b6000611971601583611d0a565b91507f5265636f726420646f6573206e6f7420657869737400000000000000000000006000830152602082019050919050565b60006080830160008301516119bc6000860182611a71565b50602083015184820360208601526119d482826117e6565b91505060408301516119e960408601826116de565b5060608301516119fc6060860182611a71565b508091505092915050565b6000608083016000830151611a1f6000860182611a71565b5060208301518482036020860152611a3782826117e6565b91505060408301518482036040860152611a5182826117e6565b9150506060830151611a6660608601826116de565b508091505092915050565b611a7a81611d81565b82525050565b611a8981611d81565b82525050565b60006020820190508181036000830152611aa981846116fc565b905092915050565b60006020820190508181036000830152611acb8184611771565b905092915050565b60006020820190508181036000830152611aec81611858565b9050919050565b60006020820190508181036000830152611b0c81611898565b9050919050565b60006020820190508181036000830152611b2c816118fe565b9050919050565b60006020820190508181036000830152611b4c81611964565b9050919050565b6000604082019050611b686000830185611a80565b611b7560208301846116ed565b9392505050565b6000608082019050611b916000830187611a80565b8181036020830152611ba3818661181f565b9050611bb260408301856116ed565b611bbf6060830184611a80565b95945050505050565b6000608082019050611bdd6000830187611a80565b8181036020830152611bef818661181f565b90508181036040830152611c03818561181f565b9050611c1260608301846116ed565b95945050505050565b6000604051905081810181811067ffffffffffffffff82111715611c4257611c41611ea6565b5b8060405250919050565b600067ffffffffffffffff821115611c6757611c66611ea6565b5b601f19601f8301169050602081019050919050565b6000819050602082019050919050565b6000819050602082019050919050565b600081519050919050565b600081519050919050565b600081519050919050565b6000602082019050919050565b6000602082019050919050565b600082825260208201905092915050565b600082825260208201905092915050565b600082825260208201905092915050565b600082825260208201905092915050565b6000611d2682611d81565b9150611d3183611d81565b925082821015611d4457611d43611e48565b5b828203905092915050565b6000611d5a82611d61565b9050919050565b600073ffffffffffffffffffffffffffffffffffffffff82169050919050565b6000819050919050565b82818337600083830152505050565b60005b83811015611db8578082015181840152602081019050611d9d565b83811115611dc7576000848401525b50505050565b60006002820490506001821680611de557607f821691505b60208210811415611df957611df8611e77565b5b50919050565b6000611e0a82611d81565b91507fffffffffffffffffffffffffffffffffffffffffffffffffffffffffffffffff821415611e3d57611e3c611e48565b5b600182019050919050565b7f4e487b7100000000000000000000000000000000000000000000000000000000600052601160045260246000fd5b7f4e487b7100000000000000000000000000000000000000000000000000000000600052602260045260246000fd5b7f4e487b7100000000000000000000000000000000000000000000000000000000600052604160045260246000fd5b6000601f19601f8301169050919050565b611eef81611d81565b8114611efa57600080fd5b5056fea26469706673582212201f648abb33303f500a710d71e5e0aca223f5a7175b88bed2fe2adb894e80a6f964736f6c63430008000033",
  "immutableReferences": {},
  "source": "// SPDX-License-Identifier: MIT\npragma solidity ^0.8.0;\n\ncontract DocumentVault {\n    struct Record {\n        uint id;\n        string ipfsHash;\n        string title;\n        address owner;\n    }\n\n    struct Activity {\n        uint recordId;\n        string action;\n        address user;\n        uint timestamp;\n    }\n\n    Record[] private records;\n    Activity[] private activities;\n    mapping(uint => uint) private recordIdToIndex;\n    mapping(uint => uint[]) private recordIdToActivityIds;\n    uint private nextRecordId = 1;\n\n    event RecordCreated(uint id, string ipfsHash, string title, address owner);\n    event RecordUpdated(uint id, string ipfsHash, string title, address owner);\n    event RecordDeleted(uint id, address owner);\n    event ActivityLogged(uint recordId, string action, address user, uint timestamp);\n\n    function createRecord(string memory ipfsHash, string memory title) public {\n        uint recordId = nextRecordId;\n        records.push(Record(recordId, ipfsHash, title, msg.sender));\n        recordIdToIndex[recordId] = records.length - 1;\n        nextRecordId++;\n        \n        emit RecordCreated(recordId, ipfsHash, title, msg.sender);\n    }\n\n    function updateRecord(uint recordId, string memory ipfsHash, string memory title) public {\n        require(records[recordIdToIndex[recordId]].owner == msg.sender, \"Only the owner can update the record\");\n\n        records[recordIdToIndex[recordId]].ipfsHash = ipfsHash;\n        records[recordIdToIndex[recordId]].title = title;\n\n        emit RecordUpdated(recordId, ipfsHash, title, msg.sender);\n    }\n\n    function logActivity(uint recordId, string memory action) public {\n        require(records[recordIdToIndex[recordId]].owner == msg.sender, \"Only the owner can log activity\");\n\n        activities.push(Activity(recordId, action, msg.sender, block.timestamp));\n        recordIdToActivityIds[recordId].push(activities.length - 1);\n\n        emit ActivityLogged(recordId, action, msg.sender, block.timestamp);\n    }\n\n    function deleteRecord(uint recordId) public {\n        require(records[recordIdToIndex[recordId]].owner == msg.sender, \"Only the owner can delete the record\");\n\n        // Remove the record from the array\n        uint index = recordIdToIndex[recordId];\n        uint lastIndex = records.length - 1;\n\n        if (index != lastIndex) {\n            Record memory lastRecord = records[lastIndex];\n            records[index] = lastRecord;\n            recordIdToIndex[lastRecord.id] = index;\n        }\n        records.pop();\n\n        // Remove associated activities\n        delete recordIdToActivityIds[recordId];\n        delete recordIdToIndex[recordId];\n\n        emit RecordDeleted(recordId, msg.sender);\n    }\n\n    function getRecord(uint recordId) public view returns (uint, string memory, string memory, address) {\n        require(recordIdToIndex[recordId] < records.length, \"Record does not exist\");\n        Record memory record = records[recordIdToIndex[recordId]];\n        return (record.id, record.ipfsHash, record.title, record.owner);\n    }\n    \n    function getAllRecords() public view returns (Record[] memory) {\n        return records;\n    }\n\n    function getActivities(uint recordId) public view returns (Activity[] memory) {\n        uint[] memory activityIds = recordIdToActivityIds[recordId];\n        Activity[] memory result = new Activity[](activityIds.length);\n\n        for (uint i = 0; i < activityIds.length; i++) {\n            result[i] = activities[activityIds[i]];\n        }\n\n        return result;\n    }\n}\n",
  "sourcePath": "/Users/sgr/Development/sg_hack/Contracts/contracts/DocumentVault.sol",
  "compiler": {
    "name": "solc",
    "version": "0.8.0+commit.c7dfd78e.Emscripten.clang"
  },
  "schemaVersion": "3.4.16",
  "updatedAt": "2024-07-13T14:04:48.930Z",
  "networkType": "ethereum",
  "devdoc": {
    "kind": "dev",
    "methods": {},
    "version": 1
  },
  "userdoc": {
    "kind": "user",
    "methods": {},
    "version": 1
  }
}