{
  "contractName": "DocumentVault",
  "abi": [
    {
      "inputs": [],
      "stateMutability": "nonpayable",
      "type": "constructor"
    },
    {
      "anonymous": false,
      "inputs": [
        {
          "indexed": false,
          "internalType": "uint256",
          "name": "recordId",
          "type": "uint256"
        },
        {
          "indexed": false,
          "internalType": "string",
          "name": "action",
          "type": "string"
        },
        {
          "indexed": false,
          "internalType": "address",
          "name": "user",
          "type": "address"
        },
        {
          "indexed": false,
          "internalType": "uint256",
          "name": "timestamp",
          "type": "uint256"
        }
      ],
      "name": "ActivityLogged",
      "type": "event"
    },
    {
      "anonymous": false,
      "inputs": [
        {
          "indexed": false,
          "internalType": "string",
          "name": "role",
          "type": "string"
        },
        {
          "indexed": false,
          "internalType": "string",
          "name": "action",
          "type": "string"
        },
        {
          "indexed": false,
          "internalType": "bool",
          "name": "result",
          "type": "bool"
        }
      ],
      "name": "PermissionChecked",
      "type": "event"
    },
    {
      "anonymous": false,
      "inputs": [
        {
          "indexed": false,
          "internalType": "uint256",
          "name": "id",
          "type": "uint256"
        },
        {
          "indexed": false,
          "internalType": "string",
          "name": "ipfsHash",
          "type": "string"
        },
        {
          "indexed": false,
          "internalType": "string",
          "name": "title",
          "type": "string"
        },
        {
          "indexed": false,
          "internalType": "address",
          "name": "owner",
          "type": "address"
        }
      ],
      "name": "RecordCreated",
      "type": "event"
    },
    {
      "anonymous": false,
      "inputs": [
        {
          "indexed": false,
          "internalType": "uint256",
          "name": "id",
          "type": "uint256"
        },
        {
          "indexed": false,
          "internalType": "string",
          "name": "ipfsHash",
          "type": "string"
        },
        {
          "indexed": false,
          "internalType": "string",
          "name": "title",
          "type": "string"
        },
        {
          "indexed": false,
          "internalType": "address",
          "name": "owner",
          "type": "address"
        }
      ],
      "name": "RecordUpdated",
      "type": "event"
    },
    {
      "inputs": [
        {
          "internalType": "uint256",
          "name": "",
          "type": "uint256"
        },
        {
          "internalType": "uint256",
          "name": "",
          "type": "uint256"
        }
      ],
      "name": "activities",
      "outputs": [
        {
          "internalType": "uint256",
          "name": "recordId",
          "type": "uint256"
        },
        {
          "internalType": "string",
          "name": "action",
          "type": "string"
        },
        {
          "internalType": "address",
          "name": "user",
          "type": "address"
        },
        {
          "internalType": "uint256",
          "name": "timestamp",
          "type": "uint256"
        }
      ],
      "stateMutability": "view",
      "type": "function",
      "constant": true
    },
    {
      "inputs": [
        {
          "internalType": "string",
          "name": "",
          "type": "string"
        },
        {
          "internalType": "string",
          "name": "",
          "type": "string"
        }
      ],
      "name": "permissions",
      "outputs": [
        {
          "internalType": "bool",
          "name": "",
          "type": "bool"
        }
      ],
      "stateMutability": "view",
      "type": "function",
      "constant": true
    },
    {
      "inputs": [],
      "name": "recordCount",
      "outputs": [
        {
          "internalType": "uint256",
          "name": "",
          "type": "uint256"
        }
      ],
      "stateMutability": "view",
      "type": "function",
      "constant": true
    },
    {
      "inputs": [
        {
          "internalType": "uint256",
          "name": "",
          "type": "uint256"
        }
      ],
      "name": "records",
      "outputs": [
        {
          "internalType": "uint256",
          "name": "id",
          "type": "uint256"
        },
        {
          "internalType": "string",
          "name": "ipfsHash",
          "type": "string"
        },
        {
          "internalType": "string",
          "name": "title",
          "type": "string"
        },
        {
          "internalType": "address",
          "name": "owner",
          "type": "address"
        }
      ],
      "stateMutability": "view",
      "type": "function",
      "constant": true
    },
    {
      "inputs": [
        {
          "internalType": "string",
          "name": "role",
          "type": "string"
        },
        {
          "internalType": "string",
          "name": "_ipfsHash",
          "type": "string"
        },
        {
          "internalType": "string",
          "name": "_title",
          "type": "string"
        }
      ],
      "name": "createRecord",
      "outputs": [],
      "stateMutability": "nonpayable",
      "type": "function"
    },
    {
      "inputs": [
        {
          "internalType": "string",
          "name": "role",
          "type": "string"
        },
        {
          "internalType": "uint256",
          "name": "_id",
          "type": "uint256"
        },
        {
          "internalType": "string",
          "name": "_ipfsHash",
          "type": "string"
        },
        {
          "internalType": "string",
          "name": "_title",
          "type": "string"
        }
      ],
      "name": "updateRecord",
      "outputs": [],
      "stateMutability": "nonpayable",
      "type": "function"
    },
    {
      "inputs": [
        {
          "internalType": "string",
          "name": "role",
          "type": "string"
        },
        {
          "internalType": "uint256",
          "name": "_recordId",
          "type": "uint256"
        },
        {
          "internalType": "string",
          "name": "_action",
          "type": "string"
        }
      ],
      "name": "logActivity",
      "outputs": [],
      "stateMutability": "nonpayable",
      "type": "function"
    },
    {
      "inputs": [
        {
          "internalType": "string",
          "name": "role",
          "type": "string"
        },
        {
          "internalType": "uint256",
          "name": "_id",
          "type": "uint256"
        }
      ],
      "name": "getRecord",
      "outputs": [
        {
          "components": [
            {
              "internalType": "uint256",
              "name": "id",
              "type": "uint256"
            },
            {
              "internalType": "string",
              "name": "ipfsHash",
              "type": "string"
            },
            {
              "internalType": "string",
              "name": "title",
              "type": "string"
            },
            {
              "internalType": "address",
              "name": "owner",
              "type": "address"
            }
          ],
          "internalType": "struct DocumentVault.Record",
          "name": "",
          "type": "tuple"
        }
      ],
      "stateMutability": "view",
      "type": "function",
      "constant": true
    },
    {
      "inputs": [
        {
          "internalType": "string",
          "name": "role",
          "type": "string"
        }
      ],
      "name": "getAllRecords",
      "outputs": [
        {
          "components": [
            {
              "internalType": "uint256",
              "name": "id",
              "type": "uint256"
            },
            {
              "internalType": "string",
              "name": "ipfsHash",
              "type": "string"
            },
            {
              "internalType": "string",
              "name": "title",
              "type": "string"
            },
            {
              "internalType": "address",
              "name": "owner",
              "type": "address"
            }
          ],
          "internalType": "struct DocumentVault.Record[]",
          "name": "",
          "type": "tuple[]"
        }
      ],
      "stateMutability": "view",
      "type": "function",
      "constant": true
    },
    {
      "inputs": [
        {
          "internalType": "string",
          "name": "role",
          "type": "string"
        },
        {
          "internalType": "uint256",
          "name": "_recordId",
          "type": "uint256"
        }
      ],
      "name": "getActivities",
      "outputs": [
        {
          "components": [
            {
              "internalType": "uint256",
              "name": "recordId",
              "type": "uint256"
            },
            {
              "internalType": "string",
              "name": "action",
              "type": "string"
            },
            {
              "internalType": "address",
              "name": "user",
              "type": "address"
            },
            {
              "internalType": "uint256",
              "name": "timestamp",
              "type": "uint256"
            }
          ],
          "internalType": "struct DocumentVault.Activity[]",
          "name": "",
          "type": "tuple[]"
        }
      ],
      "stateMutability": "view",
      "type": "function",
      "constant": true
    }
  ],
  "bytecode": "0x60806040523480156200001157600080fd5b5060016003604051620000249062000696565b908152602001604051809103902060405162000040906200067f565b908152602001604051809103902060006101000a81548160ff02191690831515021790555060016003604051620000779062000696565b9081526020016040518091039020604051620000939062000651565b908152602001604051809103902060006101000a81548160ff02191690831515021790555060016003604051620000ca9062000696565b9081526020016040518091039020604051620000e69062000623565b908152602001604051809103902060006101000a81548160ff021916908315150217905550600160036040516200011d9062000696565b9081526020016040518091039020604051620001399062000668565b908152602001604051809103902060006101000a81548160ff02191690831515021790555060016003604051620001709062000696565b90815260200160405180910390206040516200018c906200060c565b908152602001604051809103902060006101000a81548160ff02191690831515021790555060016003604051620001c39062000696565b9081526020016040518091039020604051620001df90620006ad565b908152602001604051809103902060006101000a81548160ff0219169083151502179055506001600360405162000216906200063a565b908152602001604051809103902060405162000232906200067f565b908152602001604051809103902060006101000a81548160ff0219169083151502179055506000600360405162000269906200063a565b9081526020016040518091039020604051620002859062000651565b908152602001604051809103902060006101000a81548160ff02191690831515021790555060016003604051620002bc906200063a565b9081526020016040518091039020604051620002d89062000623565b908152602001604051809103902060006101000a81548160ff021916908315150217905550600160036040516200030f906200063a565b90815260200160405180910390206040516200032b9062000668565b908152602001604051809103902060006101000a81548160ff0219169083151502179055506000600360405162000362906200063a565b90815260200160405180910390206040516200037e906200060c565b908152602001604051809103902060006101000a81548160ff02191690831515021790555060016003604051620003b5906200063a565b9081526020016040518091039020604051620003d190620006ad565b908152602001604051809103902060006101000a81548160ff021916908315150217905550620006cf565b60006200040b600d83620006c4565b91507f676574416c6c5265636f726473000000000000000000000000000000000000006000830152600d82019050919050565b60006200044d600b83620006c4565b91507f6c6f6741637469766974790000000000000000000000000000000000000000006000830152600b82019050919050565b60006200048f600483620006c4565b91507f55736572000000000000000000000000000000000000000000000000000000006000830152600482019050919050565b6000620004d1600683620006c4565b91507f75706461746500000000000000000000000000000000000000000000000000006000830152600682019050919050565b600062000513600983620006c4565b91507f6765745265636f726400000000000000000000000000000000000000000000006000830152600982019050919050565b600062000555600683620006c4565b91507f63726561746500000000000000000000000000000000000000000000000000006000830152600682019050919050565b600062000597600583620006c4565b91507f41646d696e0000000000000000000000000000000000000000000000000000006000830152600582019050919050565b6000620005d9600d83620006c4565b91507f67657441637469766974696573000000000000000000000000000000000000006000830152600d82019050919050565b60006200061982620003fc565b9150819050919050565b600062000630826200043e565b9150819050919050565b6000620006478262000480565b9150819050919050565b60006200065e82620004c2565b9150819050919050565b6000620006758262000504565b9150819050919050565b60006200068c8262000546565b9150819050919050565b6000620006a38262000588565b9150819050919050565b6000620006ba82620005ca565b9150819050919050565b600081905092915050565b6120c480620006df6000396000f3fe608060405234801561001057600080fd5b506004361061009e5760003560e01c8063bc60f6a111610066578063bc60f6a114610170578063bf8bae7b146101a0578063c41cad68146101d0578063facff5d2146101ec578063fcfc1a76146102085761009e565b806334461067146100a357806378d573a2146100d657806389953a6314610106578063900407bc14610122578063a45b737414610140575b600080fd5b6100bd60048036038101906100b891906117e7565b61023b565b6040516100cd9493929190611d42565b60405180910390f35b6100f060048036038101906100eb9190611525565b61039b565b6040516100fd9190611c3c565b60405180910390f35b610120600480360381019061011b919061173c565b6106b9565b005b61012a61092e565b6040516101379190611cdb565b60405180910390f35b61015a60048036038101906101559190611566565b610934565b6040516101679190611c5e565b60405180910390f35b61018a60048036038101906101859190611669565b61098f565b6040516101979190611cb9565b60405180910390f35b6101ba60048036038101906101b59190611669565b610bbe565b6040516101c79190611c1a565b60405180910390f35b6101ea60048036038101906101e591906116bd565b610dab565b005b610206600480360381019061020191906115d2565b610fa1565b005b610222600480360381019061021d9190611810565b611280565b6040516102329493929190611cf6565b60405180910390f35b600060205280600052604060002060009150905080600001549080600101805461026490611f5e565b80601f016020809104026020016040519081016040528092919081815260200182805461029090611f5e565b80156102dd5780601f106102b2576101008083540402835291602001916102dd565b820191906000526020600020905b8154815290600101906020018083116102c057829003601f168201915b5050505050908060020180546102f290611f5e565b80601f016020809104026020016040519081016040528092919081815260200182805461031e90611f5e565b801561036b5780601f106103405761010080835404028352916020019161036b565b820191906000526020600020905b81548152906001019060200180831161034e57829003601f168201915b5050505050908060030160009054906101000a900473ffffffffffffffffffffffffffffffffffffffff16905084565b60606103dc826040518060400160405280600d81526020017f676574416c6c5265636f72647300000000000000000000000000000000000000815250611375565b61041b576040517f08c379a000000000000000000000000000000000000000000000000000000000815260040161041290611c79565b60405180910390fd5b600060025467ffffffffffffffff81111561045f577f4e487b7100000000000000000000000000000000000000000000000000000000600052604160045260246000fd5b60405190808252806020026020018201604052801561049857816020015b6104856113c7565b81526020019060019003908161047d5790505b5090506000600190505b60025481116106af57600080828152602001908152602001600020604051806080016040529081600082015481526020016001820180546104e290611f5e565b80601f016020809104026020016040519081016040528092919081815260200182805461050e90611f5e565b801561055b5780601f106105305761010080835404028352916020019161055b565b820191906000526020600020905b81548152906001019060200180831161053e57829003601f168201915b5050505050815260200160028201805461057490611f5e565b80601f01602080910402602001604051908101604052809291908181526020018280546105a090611f5e565b80156105ed5780601f106105c2576101008083540402835291602001916105ed565b820191906000526020600020905b8154815290600101906020018083116105d057829003601f168201915b505050505081526020016003820160009054906101000a900473ffffffffffffffffffffffffffffffffffffffff1673ffffffffffffffffffffffffffffffffffffffff1673ffffffffffffffffffffffffffffffffffffffff16815250508260018361065a9190611ea0565b81518110610691577f4e487b7100000000000000000000000000000000000000000000000000000000600052603260045260246000fd5b602002602001018190525080806106a790611f90565b9150506104a2565b5080915050919050565b836040518060400160405280600681526020017f75706461746500000000000000000000000000000000000000000000000000008152506106fa8282611375565b610739576040517f08c379a000000000000000000000000000000000000000000000000000000000815260040161073090611c79565b60405180910390fd5b60025485111561077e576040517f08c379a000000000000000000000000000000000000000000000000000000000815260040161077590611c99565b60405180910390fd5b60008060008781526020019081526020016000209050848160010190805190602001906107ac929190611405565b50838160020190805190602001906107c5929190611405565b506001600087815260200190815260200160002060405180608001604052808881526020016040518060400160405280600781526020017f557064617465640000000000000000000000000000000000000000000000000081525081526020013373ffffffffffffffffffffffffffffffffffffffff168152602001428152509080600181540180825580915050600190039060005260206000209060040201600090919091909150600082015181600001556020820151816001019080519060200190610894929190611405565b5060408201518160020160006101000a81548173ffffffffffffffffffffffffffffffffffffffff021916908373ffffffffffffffffffffffffffffffffffffffff1602179055506060820151816003015550507fd8ffe0afb9f36890ae7921bcf8011f5cb28986a631f29a27d134e285b3aee5498686863360405161091d9493929190611d42565b60405180910390a150505050505050565b60025481565b600382805160208101820180518482526020830160208501208183528095505050505050818051602081018201805184825260208301602085012081835280955050505050506000915091509054906101000a900460ff1681565b6109976113c7565b6109d6836040518060400160405280600981526020017f6765745265636f72640000000000000000000000000000000000000000000000815250611375565b610a15576040517f08c379a0000000000000000000000000000000000000000000000000000000008152600401610a0c90611c79565b60405180910390fd5b60008083815260200190815260200160002060405180608001604052908160008201548152602001600182018054610a4c90611f5e565b80601f0160208091040260200160405190810160405280929190818152602001828054610a7890611f5e565b8015610ac55780601f10610a9a57610100808354040283529160200191610ac5565b820191906000526020600020905b815481529060010190602001808311610aa857829003601f168201915b50505050508152602001600282018054610ade90611f5e565b80601f0160208091040260200160405190810160405280929190818152602001828054610b0a90611f5e565b8015610b575780601f10610b2c57610100808354040283529160200191610b57565b820191906000526020600020905b815481529060010190602001808311610b3a57829003601f168201915b505050505081526020016003820160009054906101000a900473ffffffffffffffffffffffffffffffffffffffff1673ffffffffffffffffffffffffffffffffffffffff1673ffffffffffffffffffffffffffffffffffffffff1681525050905092915050565b6060610bff836040518060400160405280600d81526020017f6765744163746976697469657300000000000000000000000000000000000000815250611375565b610c3e576040517f08c379a0000000000000000000000000000000000000000000000000000000008152600401610c3590611c79565b60405180910390fd5b60016000838152602001908152602001600020805480602002602001604051908101604052809291908181526020016000905b82821015610d9f578382906000526020600020906004020160405180608001604052908160008201548152602001600182018054610cae90611f5e565b80601f0160208091040260200160405190810160405280929190818152602001828054610cda90611f5e565b8015610d275780601f10610cfc57610100808354040283529160200191610d27565b820191906000526020600020905b815481529060010190602001808311610d0a57829003601f168201915b505050505081526020016002820160009054906101000a900473ffffffffffffffffffffffffffffffffffffffff1673ffffffffffffffffffffffffffffffffffffffff1673ffffffffffffffffffffffffffffffffffffffff16815260200160038201548152505081526020019060010190610c71565b50505050905092915050565b826040518060400160405280600b81526020017f6c6f674163746976697479000000000000000000000000000000000000000000815250610dec8282611375565b610e2b576040517f08c379a0000000000000000000000000000000000000000000000000000000008152600401610e2290611c79565b60405180910390fd5b600254841115610e70576040517f08c379a0000000000000000000000000000000000000000000000000000000008152600401610e6790611c99565b60405180910390fd5b6001600085815260200190815260200160002060405180608001604052808681526020018581526020013373ffffffffffffffffffffffffffffffffffffffff168152602001428152509080600181540180825580915050600190039060005260206000209060040201600090919091909150600082015181600001556020820151816001019080519060200190610f09929190611405565b5060408201518160020160006101000a81548173ffffffffffffffffffffffffffffffffffffffff021916908373ffffffffffffffffffffffffffffffffffffffff1602179055506060820151816003015550507f03d7b3bee7b750a2246ea0838ad011e7598733a7d354ba39498853f3dd1b344284843342604051610f929493929190611cf6565b60405180910390a15050505050565b826040518060400160405280600681526020017f6372656174650000000000000000000000000000000000000000000000000000815250610fe28282611375565b611021576040517f08c379a000000000000000000000000000000000000000000000000000000000815260040161101890611c79565b60405180910390fd5b6002600081548092919061103490611f90565b9190505550604051806080016040528060025481526020018581526020018481526020013373ffffffffffffffffffffffffffffffffffffffff1681525060008060025481526020019081526020016000206000820151816000015560208201518160010190805190602001906110ac929190611405565b5060408201518160020190805190602001906110c9929190611405565b5060608201518160030160006101000a81548173ffffffffffffffffffffffffffffffffffffffff021916908373ffffffffffffffffffffffffffffffffffffffff160217905550905050600160006002548152602001908152602001600020604051806080016040528060025481526020016040518060400160405280600781526020017f437265617465640000000000000000000000000000000000000000000000000081525081526020013373ffffffffffffffffffffffffffffffffffffffff1681526020014281525090806001815401808255809150506001900390600052602060002090600402016000909190919091506000820151816000015560208201518160010190805190602001906111e6929190611405565b5060408201518160020160006101000a81548173ffffffffffffffffffffffffffffffffffffffff021916908373ffffffffffffffffffffffffffffffffffffffff1602179055506060820151816003015550507f5516ba31be0cd157fb67a13dd3abcd94b19579a6caf18b78b1655bd1398d19bf6002548585336040516112719493929190611d42565b60405180910390a15050505050565b6001602052816000526040600020818154811061129c57600080fd5b9060005260206000209060040201600091509150508060000154908060010180546112c690611f5e565b80601f01602080910402602001604051908101604052809291908181526020018280546112f290611f5e565b801561133f5780601f106113145761010080835404028352916020019161133f565b820191906000526020600020905b81548152906001019060200180831161132257829003601f168201915b5050505050908060020160009054906101000a900473ffffffffffffffffffffffffffffffffffffffff16908060030154905084565b60006003836040516113879190611c03565b9081526020016040518091039020826040516113a39190611c03565b908152602001604051809103902060009054906101000a900460ff16905092915050565b6040518060800160405280600081526020016060815260200160608152602001600073ffffffffffffffffffffffffffffffffffffffff1681525090565b82805461141190611f5e565b90600052602060002090601f016020900481019282611433576000855561147a565b82601f1061144c57805160ff191683800117855561147a565b8280016001018555821561147a579182015b8281111561147957825182559160200191906001019061145e565b5b509050611487919061148b565b5090565b5b808211156114a457600081600090555060010161148c565b5090565b60006114bb6114b684611dc6565b611d95565b9050828152602081018484840111156114d357600080fd5b6114de848285611f1c565b509392505050565b600082601f8301126114f757600080fd5b81356115078482602086016114a8565b91505092915050565b60008135905061151f81612077565b92915050565b60006020828403121561153757600080fd5b600082013567ffffffffffffffff81111561155157600080fd5b61155d848285016114e6565b91505092915050565b6000806040838503121561157957600080fd5b600083013567ffffffffffffffff81111561159357600080fd5b61159f858286016114e6565b925050602083013567ffffffffffffffff8111156115bc57600080fd5b6115c8858286016114e6565b9150509250929050565b6000806000606084860312156115e757600080fd5b600084013567ffffffffffffffff81111561160157600080fd5b61160d868287016114e6565b935050602084013567ffffffffffffffff81111561162a57600080fd5b611636868287016114e6565b925050604084013567ffffffffffffffff81111561165357600080fd5b61165f868287016114e6565b9150509250925092565b6000806040838503121561167c57600080fd5b600083013567ffffffffffffffff81111561169657600080fd5b6116a2858286016114e6565b92505060206116b385828601611510565b9150509250929050565b6000806000606084860312156116d257600080fd5b600084013567ffffffffffffffff8111156116ec57600080fd5b6116f8868287016114e6565b935050602061170986828701611510565b925050604084013567ffffffffffffffff81111561172657600080fd5b611732868287016114e6565b9150509250925092565b6000806000806080858703121561175257600080fd5b600085013567ffffffffffffffff81111561176c57600080fd5b611778878288016114e6565b945050602061178987828801611510565b935050604085013567ffffffffffffffff8111156117a657600080fd5b6117b2878288016114e6565b925050606085013567ffffffffffffffff8111156117cf57600080fd5b6117db878288016114e6565b91505092959194509250565b6000602082840312156117f957600080fd5b600061180784828501611510565b91505092915050565b6000806040838503121561182357600080fd5b600061183185828601611510565b925050602061184285828601611510565b9150509250929050565b60006118588383611aae565b905092915050565b600061186c8383611b11565b905092915050565b61187d81611ed4565b82525050565b61188c81611ed4565b82525050565b600061189d82611e16565b6118a78185611e51565b9350836020820285016118b985611df6565b8060005b858110156118f557848403895281516118d6858261184c565b94506118e183611e37565b925060208a019950506001810190506118bd565b50829750879550505050505092915050565b600061191282611e21565b61191c8185611e62565b93508360208202850161192e85611e06565b8060005b8581101561196a578484038952815161194b8582611860565b945061195683611e44565b925060208a01995050600181019050611932565b50829750879550505050505092915050565b61198581611ee6565b82525050565b600061199682611e2c565b6119a08185611e73565b93506119b0818560208601611f2b565b6119b981612066565b840191505092915050565b60006119cf82611e2c565b6119d98185611e84565b93506119e9818560208601611f2b565b6119f281612066565b840191505092915050565b6000611a0882611e2c565b611a128185611e95565b9350611a22818560208601611f2b565b80840191505092915050565b6000611a3b601d83611e84565b91507f4163636573732064656e6965643a20496e636f727265637420726f6c650000006000830152602082019050919050565b6000611a7b601683611e84565b91507f5265636f726420646f6573206e6f742065786973742e000000000000000000006000830152602082019050919050565b6000608083016000830151611ac66000860182611be5565b5060208301518482036020860152611ade828261198b565b9150506040830151611af36040860182611874565b506060830151611b066060860182611be5565b508091505092915050565b6000608083016000830151611b296000860182611be5565b5060208301518482036020860152611b41828261198b565b91505060408301518482036040860152611b5b828261198b565b9150506060830151611b706060860182611874565b508091505092915050565b6000608083016000830151611b936000860182611be5565b5060208301518482036020860152611bab828261198b565b91505060408301518482036040860152611bc5828261198b565b9150506060830151611bda6060860182611874565b508091505092915050565b611bee81611f12565b82525050565b611bfd81611f12565b82525050565b6000611c0f82846119fd565b915081905092915050565b60006020820190508181036000830152611c348184611892565b905092915050565b60006020820190508181036000830152611c568184611907565b905092915050565b6000602082019050611c73600083018461197c565b92915050565b60006020820190508181036000830152611c9281611a2e565b9050919050565b60006020820190508181036000830152611cb281611a6e565b9050919050565b60006020820190508181036000830152611cd38184611b7b565b905092915050565b6000602082019050611cf06000830184611bf4565b92915050565b6000608082019050611d0b6000830187611bf4565b8181036020830152611d1d81866119c4565b9050611d2c6040830185611883565b611d396060830184611bf4565b95945050505050565b6000608082019050611d576000830187611bf4565b8181036020830152611d6981866119c4565b90508181036040830152611d7d81856119c4565b9050611d8c6060830184611883565b95945050505050565b6000604051905081810181811067ffffffffffffffff82111715611dbc57611dbb612037565b5b8060405250919050565b600067ffffffffffffffff821115611de157611de0612037565b5b601f19601f8301169050602081019050919050565b6000819050602082019050919050565b6000819050602082019050919050565b600081519050919050565b600081519050919050565b600081519050919050565b6000602082019050919050565b6000602082019050919050565b600082825260208201905092915050565b600082825260208201905092915050565b600082825260208201905092915050565b600082825260208201905092915050565b600081905092915050565b6000611eab82611f12565b9150611eb683611f12565b925082821015611ec957611ec8611fd9565b5b828203905092915050565b6000611edf82611ef2565b9050919050565b60008115159050919050565b600073ffffffffffffffffffffffffffffffffffffffff82169050919050565b6000819050919050565b82818337600083830152505050565b60005b83811015611f49578082015181840152602081019050611f2e565b83811115611f58576000848401525b50505050565b60006002820490506001821680611f7657607f821691505b60208210811415611f8a57611f89612008565b5b50919050565b6000611f9b82611f12565b91507fffffffffffffffffffffffffffffffffffffffffffffffffffffffffffffffff821415611fce57611fcd611fd9565b5b600182019050919050565b7f4e487b7100000000000000000000000000000000000000000000000000000000600052601160045260246000fd5b7f4e487b7100000000000000000000000000000000000000000000000000000000600052602260045260246000fd5b7f4e487b7100000000000000000000000000000000000000000000000000000000600052604160045260246000fd5b6000601f19601f8301169050919050565b61208081611f12565b811461208b57600080fd5b5056fea2646970667358221220fc62951b374b2324f4f2741f92d83eec01147631fc5061090c6d2945d31acc5464736f6c63430008000033",
  "immutableReferences": {},
  "source": "// SPDX-License-Identifier: MIT\npragma solidity ^0.8.0;\n\ncontract DocumentVault {\n    struct Record {\n        uint id;\n        string ipfsHash;\n        string title;\n        address owner;\n    }\n\n    struct Activity {\n        uint recordId;\n        string action;\n        address user;\n        uint timestamp;\n    }\n\n    mapping(uint => Record) public records;\n    mapping(uint => Activity[]) public activities;\n    uint public recordCount;\n\n    event RecordCreated(\n        uint id,\n        string ipfsHash,\n        string title,\n        address owner\n    );\n\n    event RecordUpdated(\n        uint id,\n        string ipfsHash,\n        string title,\n        address owner\n    );\n\n    event ActivityLogged(\n        uint recordId,\n        string action,\n        address user,\n        uint timestamp\n    );\n\n    event PermissionChecked(\n        string role,\n        string action,\n        bool result\n    );\n\n    mapping(string => mapping(string => bool)) public permissions;\n\n    constructor() {\n        permissions[\"Admin\"][\"create\"] = true;\n        permissions[\"Admin\"][\"update\"] = true;\n        permissions[\"Admin\"][\"logActivity\"] = true;\n        permissions[\"Admin\"][\"getRecord\"] = true;\n        permissions[\"Admin\"][\"getAllRecords\"] = true;\n        permissions[\"Admin\"][\"getActivities\"] = true;\n\n        permissions[\"User\"][\"create\"] = true;\n        permissions[\"User\"][\"update\"] = false;\n        permissions[\"User\"][\"logActivity\"] = true;\n        permissions[\"User\"][\"getRecord\"] = true;\n        permissions[\"User\"][\"getAllRecords\"] = false;\n        permissions[\"User\"][\"getActivities\"] = true;\n    }\n\n    modifier onlyRole(string memory role, string memory action) {\n        require(checkRole(role, action), \"Access denied: Incorrect role\");\n        _;\n    }\n\n    function createRecord(string memory role, string memory _ipfsHash, string memory _title) public onlyRole(role, \"create\") {\n        recordCount++;\n        records[recordCount] = Record(recordCount, _ipfsHash, _title, msg.sender);\n        activities[recordCount].push(Activity(recordCount, \"Created\", msg.sender, block.timestamp));\n        emit RecordCreated(recordCount, _ipfsHash, _title, msg.sender);\n    }\n\n    function updateRecord(string memory role, uint _id, string memory _ipfsHash, string memory _title) public onlyRole(role, \"update\") {\n        require(_id <= recordCount, \"Record does not exist.\");\n        Record storage record = records[_id];\n        record.ipfsHash = _ipfsHash;\n        record.title = _title;\n        activities[_id].push(Activity(_id, \"Updated\", msg.sender, block.timestamp));\n        emit RecordUpdated(_id, _ipfsHash, _title, msg.sender);\n    }\n\n    function logActivity(string memory role, uint _recordId, string memory _action) public onlyRole(role, \"logActivity\") {\n        require(_recordId <= recordCount, \"Record does not exist.\");\n        activities[_recordId].push(Activity(_recordId, _action, msg.sender, block.timestamp));\n        emit ActivityLogged(_recordId, _action, msg.sender, block.timestamp);\n    }\n\n    function checkRole(string memory role, string memory action) internal view returns (bool) {\n        return permissions[role][action];\n    }\n\n    function getRecord(string memory role, uint _id) public view returns (Record memory) {\n        require(checkRole(role, \"getRecord\"), \"Access denied: Incorrect role\");\n        return records[_id];\n    }\n\n    function getAllRecords(string memory role) public view returns (Record[] memory) {\n        require(checkRole(role, \"getAllRecords\"), \"Access denied: Incorrect role\");\n        Record[] memory allRecords = new Record[](recordCount);\n        for (uint i = 1; i <= recordCount; i++) {\n            allRecords[i - 1] = records[i];\n        }\n        return allRecords;\n    }\n\n    function getActivities(string memory role, uint _recordId) public view returns (Activity[] memory) {\n        require(checkRole(role, \"getActivities\"), \"Access denied: Incorrect role\");\n        return activities[_recordId];\n    }\n}",
  "sourcePath": "/Users/sgr/Development/sg_hack/Contracts/contracts/DocumentVault.sol",
  "compiler": {
    "name": "solc",
    "version": "0.8.0+commit.c7dfd78e.Emscripten.clang"
  },
  "schemaVersion": "3.4.16",
  "updatedAt": "2024-07-13T17:07:48.727Z",
  "networkType": "ethereum",
  "devdoc": {
    "kind": "dev",
    "methods": {},
    "version": 1
  },
  "userdoc": {
    "kind": "user",
    "methods": {},
    "version": 1
  }
}